:020000040800F2
:10000000B0070020A5170008790800087B08000841
:100010007F08000883080008870800080000000027
:100020000000000000000000000000008B08000835
:100030008D080008000000008F08000891080008E3
:10004000BF170008BF170008BF170008BF17000838
:10005000BF170008BF170008BF170008BF17000828
:10006000BF170008BF170008BF170008BF17000818
:10007000BF170008BF170008BF170008BF17000808
:10008000BF170008BF170008BF170008BF170008F8
:10009000BF170008BF170008BF170008BF170008E8
:1000A000BF170008BF170008BF170008BF170008D8
:1000B000B11200083F12000827120008BF170008FD
:1000C000BF170008BF170008BF170008BF170008B8
:1000D000BF170008DB15000813170008BF1700083A
:1000E000BF170008BF170008BF170008BF17000898
:1000F000BF170008BF170008BF170008BF17000888
:10010000BF170008BF170008BF170008BF17000877
:10011000BF170008BF170008BF170008BF17000867
:10012000BF170008BF170008BF170008BF17000857
:10013000BF170008BF170008BF170008BF17000847
:10014000BF170008BF170008BF170008BF17000837
:10015000BF170008BF170008BF170008BF17000827
:10016000BF170008BF170008BF170008BF17000817
:10017000BF170008BF170008BF170008BF17000807
:10018000BF170008BF17000800F002F800F03CF8A5
:100190000AA090E8000C82448344AAF10107DA45E2
:1001A00001D100F031F8AFF2090EBAE80F0013F0F8
:1001B000010F18BFFB1A43F001031847B4370000C2
:1001C000D4370000103A24BF78C878C1FAD8520753
:1001D00024BF30C830C144BF04680C6070470000C1
:1001E0000023002400250026103A28BF78C1FBD840
:1001F000520728BF30C148BF0B6070471FB503F0DE
:10020000B1FB1FBD10B510BD03F055F81146FFF747
:10021000F5FF00F09EF903F073F803B4FFF7F2FF67
:1002200003BC01F079F9000010B54FF4407001F003
:10023000D9FAA82001F0EEF800F034FC00F0F8FE46
:100240004FF4E13001F077F94FF4164001F010FA65
:1002500000F038FF00F08FFF42F2CF0140F2F310C0
:1002600000F0F9FF40F6CE21632001F07DF810BDCB
:1002700070B505460C46A4F1630000EE100AB8EE16
:10028000C00AB0EE401A601E00EE100AB8EEC00AB6
:10029000F0EE400A9FEDF70A00F0A2FE9FEDF61A7D
:1002A000DFEDF60AB5EE000A00F0A0FD0120F449EA
:1002B0000870284600F0ECFEF24890ED000AB8EE17
:1002C000C00A00F0BBFDF04890ED000AB8EEC00A8D
:1002D00000F0B8FDED4880ED000A90ED000AF1EE67
:1002E000400AEB4890ED000AB8EEC00A30EE800AF2
:1002F000BDEEC00A80ED000A0068632802DD6320BD
:10030000E3490860E2480068002802DA0020E0497A
:100310000860DF49087800F0C6FE70BD70B506467B
:100320000C46A4F1630000EE100AB8EEC00AB0EE6D
:10033000401A601E00EE100AB8EEC00AF0EE400A45
:100340009FEDCC0A00F04CFE9FEDCB1ADFEDCB0AFF
:100350009FEDD00A00F04AFD304600F07BFEC94810
:100360000568002D01DB284600E0684200EE900A97
:10037000B8EEE00A00F062FDC3480568002D01DB1D
:10038000284600E0684200EE900AB8EEE00A00F06D
:1003900059FDBE4880ED000A90ED000AF1EE400ADA
:1003A000BD4890ED000AB8EEC00A30EE800ABDEEFE
:1003B000C00A80ED000A0068632802DD6320B649A8
:1003C0000860B5480068002802DA0020B2490860D9
:1003D000B149087800F049FE70BD70B50446AF48D9
:1003E0000078633800EE100AB8EEC00AB0EE401A8A
:1003F000AA480078401E00EE100AB8EEC00AF0EEDF
:10040000400A9FED9C0A00F0EBFD9FED9B1ADFED8B
:100410009B0A9FEDA30A00F0E9FCA048007800F0D9
:1004200019FE00EE104AB8EEC00A00F007FD95482C
:100430000568002D01DB284600E0684200EE900AC6
:10044000B8EEE00A00F0FEFC904880ED000A90ED66
:10045000000AF1EE400A9148007800EE100AB8EE6A
:10046000400A30EE800ABCEEC00A10EE100A8B493A
:10047000087008460078632801DD6320087087480B
:100480000078002802DA0020844908708348007848
:1004900000F0E0FD70BD70B5044682480078633816
:1004A00000EE100AB8EEC00AB0EE401A7D4800789F
:1004B000401E00EE100AB8EEC00AF0EE400A9FEDB2
:1004C0006D0A00F08DFD9FED6C1ADFED6C0A9FED5B
:1004D000740A00F08BFC7348007800F0C6FD00EE53
:1004E000104AB8EEC00A00F0A9FC67480568002D64
:1004F00001DB284600E0684200EE900AB8EEE00A10
:1005000000F0A0FC614880ED000A90ED000AF1EED9
:10051000400A6448007800EE100AB8EE400A30EE57
:10052000800ABCEEC00A10EE100A5E490870084648
:100530000078632801DD632008705A48007800289D
:1005400002DA0020574908705648007800F08DFD07
:1005500070BD2DED088BFFF767FE642000F0BCFF37
:1005600072E15148008800F4004068B14F480078BB
:100570004F4908704D488178407801EB00204D4983
:1005800008800020484908804B48007810B1262098
:1005900000F034FF48480078002869D044480078CB
:1005A000012865D143490988A1F5A070002801DB25
:1005B000014600E041428DB240480088281A06B248
:1005C0003E480580304602F0AEFF41EC1B0B9FED2C
:1005D0003C0B53EC102B02F0D1FF41EC190B2846D9
:1005E00002F0B8FF41EC1B0B9FED370B53EC102BC7
:1005F00002F0C4FF41EC1A0B53EC192B02F08EFEF3
:1006000041EC180B02F032FF0446142C00DD1424D8
:1006100028480088B0F5A07F06D11420FFF7DDFE42
:100620001420FFF738FF79E022480088B0F5A07F5A
:1006300056DDC4F11400FFF72EFF284602F08AFFB2
:1006400041EC1A0B9FED220B53EC102B02F096FF9E
:1006500041EC190B9FED200B53EC102B03F08CF8A1
:1006600041EC180B02F002FF0746FFF7B6FE55E01B
:1006700055E000000AD7233C6F12833A022B873CD7
:10068000080000205C000020600000200C0000201A
:10069000140000206DE77B3E1800002006000020BB
:1006A00068916D3E07000020740000208800002043
:1006B00010000020020000200A000020040000209A
:1006C000333333333333C33FBADA8AFD65F7C03F80
:1006D000F4DBD7817346843F000000000000344003
:1006E000284602F037FF41EC1A0B1FED070B53ECC5
:1006F000102B02F043FF41EC190B1FED090B53ECDB
:10070000102B03F039F841EC180B02F0AFFE07464E
:10071000FFF7C1FEC4F11400FFF75FFE00BF4B48B6
:10072000007820B14A480078022800D18CE0474880
:10073000007800283ED04648007803283AD10A20A5
:10074000FFF74BFE0A20FFF7A6FE42480088B0F5EF
:10075000967F2FDC00F094FC4FF47A7000F0BCFE22
:1007600000203A490870302000F048FE00F088FC74
:100770004FF47A7000F0B0FE1420FFF72EFE142024
:10078000FFF789FE40F20E6000F0A6FE00F078FC54
:100790002F2406E0E0B200F031FEB42000F09CFE11
:1007A000641E272CF6DC01202B4908704FF4FA70E8
:1007B00000F092FE41E04FF4FA7000F08DFE1E2131
:1007C0000846FFF755FD2548006802F0ACFE41ECF5
:1007D0001A0B9FED230B53EC102B02F0CFFE41ECD4
:1007E000190B9FED210B53EC102B02F0C7FE41ECCF
:1007F000180B02F06BFE1E49088008460088BE28D0
:100800001BDB14210846FFF733FD642000F064FE73
:1008100000F036FC0020174908700F4908702124A9
:1008200006E0E0B200F0EAFDB42000F055FE641CE2
:10083000272CF6DB212000F0E1FD07480078002896
:10084000B9D100F047F900BF8BE600000A00002094
:100850001000002002000020090000206400002099
:1008600050954AD3FB2109400000000000004F4092
:100870000000002008000020704700BFFEE700BF16
:10088000FEE700BFFEE700BFFEE770477047704716
:10089000704700000CB50020019000907648006879
:1008A00040F480307449086000BF7348006800F469
:1008B000003000900198401C0190009818B90198F0
:1008C000B0F5A04FF1D16C48006800F4003010B1D1
:1008D0000120009001E0002000900098012846D1FE
:1008E00065484030006840F08050634940310860FE
:1008F0006248006840F44040604908605E48083043
:1009000000685D49083108600846006840F400400E
:1009100008600846006840F4A05008605848091F65
:100920000860081F006840F08070091F086000BF61
:100930005148006800F000700028F9D040F20570BE
:10094000504908604C480830006820F003004A49CC
:10095000083108600846006840F00200086000BFE7
:1009600045480830006800F00C000828F8D10CBD9C
:1009700010B54548006840F47000434908603E489F
:10098000006840F001003C49086000203A49083105
:100990000860394800683D490840374908603C48CC
:1009A000091D0860081F006820F48020091F0860E6
:1009B000002031490C310860FFF76CFF4FF00060F8
:1009C00031498039086010BD70B500200022022333
:1009D00000240221284D08352D6805F00C0020B1B7
:1009E000042806D0082834D107E02A4D2A4E356065
:1009F00033E02A4D284E35602FE01F4D2D1D2D6808
:100A0000C5F380541C4D2D1D2D6805F03F0154B1D8
:100A1000224DB5FBF1F5184E361D3668C6F3881623
:100A200005FB06F209E01B4DB5FBF1F5124E361D34
:100A30003668C6F3881605FB06F20F4D2D1D2D688E
:100A4000C5F301456D1C6B00B2FBF3F5124E35602A
:100A500003E0104D104E356000BF00BF064D083555
:100A60002D68C5F303150E4E705D0B4D2D68C54006
:100A7000094E356070BD0000003802400070004033
:100A800008544007003C024088ED00E0FFFFF6FEFE
:100A9000103000240024F4001C00002000127A0012
:100AA000200000201CB50121084602F0ABFA4020CE
:100AB000009001208DF8040000208DF8060003202E
:100AC0008DF8050001208DF807006946184800F0F0
:100AD0007FFF1CBD10B517480068C0431649C1F818
:100AE0009802962000F0F8FC10BD1CB501210820EA
:100AF00002F088FA1020009001208DF804000020F8
:100B00008DF8060003208DF8050001208DF8070000
:100B100069460A4800F05CFF1CBD10B50848006833
:100B2000C0430849C1F89002962000F0D5FC10BDE2
:100B3000000002409802404200004042000C024087
:100B4000908241420080414230B58BB004460D4650
:100B50000121084602F0B0FA0121102002F052FAF9
:100B600001220E21924800F0BEFF4FF48040099010
:100B700002208DF8280003208DF8290000208DF830
:100B80002A0001208DF82B0009A9894800F020FFD8
:100B9000A8B2ADF818000020ADF81A000794ADF81F
:100BA000200006A9834801F0AEFA6020ADF80400E9
:100BB0000120ADF806000220ADF8100001A97D4823
:100BC00001F022FC08217B4801F0DEFC012179487C
:100BD00001F004FB0121774801F01EFB0BB030BD92
:100BE00030B58BB004460D460121084602F064FA88
:100BF0000121084602F006FA4FF4807009900220A5
:100C00008DF8280003208DF8290000208DF82A0097
:100C100001208DF82B0009A9674800F0D9FE0122B8
:100C20000821654800F05FFFA8B2ADF81800002069
:100C3000ADF81A000794ADF8200006A95D4801F050
:100C400062FA6020ADF804000120ADF80600022031
:100C5000ADF810000020039001A9564801F0E8FA11
:100C60000821544801F071FC0121524801F0B6FA04
:100C70000121504801F0D0FA01214E4801F0BDFE9B
:100C80000BB030BD30B58BB004460D4601210804D1
:100C900002F012FA0121102002F0B4F9032205211A
:100CA000434800F020FF2020099002208DF8280002
:100CB00003208DF8290000208DF82A0001208DF8EE
:100CC0002B0009A93A4800F083FEA8B2ADF818003D
:100CD0000020ADF81A000794ADF8200006A93748A7
:100CE00001F011FA6020ADF804000120ADF8060013
:100CF0000220ADF8100001A9304801F099FA08214E
:100D00002E4801F022FC01212C4801F067FA012154
:100D10002A4801F081FA0BB030BD30B58BB00446E3
:100D20000D460121080402F0C7F90121102002F04C
:100D300069F9032206211E4800F0D5FE40200990E3
:100D400002208DF8280003208DF8290000208DF85E
:100D50002A0001208DF82B0009A9154800F038FE63
:100D6000A8B2ADF818000020ADF81A000794ADF84D
:100D7000200006A9114801F0C6F96020ADF8040072
:100D80000120ADF806000220ADF8100001A90B48C3
:100D900001F087FA0821094801F0E0FB012107482A
:100DA00001F01CFA0121054801F036FA0BB030BD04
:100DB00000100240000001400000024000400140DD
:100DC0008F4880ED000A70478E48D0ED000A60EE33
:100DD000200A8D48C0ED000A70478A48D0ED000A0D
:100DE00080EE201A894880ED001A704700B5F0EEB9
:100DF000402AF0EE601AB0EE412AB0EE620AFFF728
:100E0000DFFFB0EE610AFFF7DFFFB0EE420AFFF747
:100E1000E4FF00BD7B4880ED000A7047F7EE000A52
:100E200080EE801A774880ED001A7047784880ED90
:100E3000000A7047774880ED000A7047764880EDD9
:100E4000000A7047F0EE400A734890ED000A30EE59
:100E5000600A724880ED000A694890ED000A6F4808
:100E600090ED001A20EE010A674890ED001A6C48D8
:100E7000D0ED001A01EE210A684890ED001A694889
:100E8000D0ED001A31EE611A6048D0ED001A01EE83
:100E9000810A654880ED000A90ED000A5D4890EDFA
:100EA000001AB4EEC10AF1EE10FA2DDD90ED000A41
:100EB0005D4880ED000A5A4890ED000A574890EDD1
:100EC000001AC0EE011AF5EEC01AF1EE10FA17D2B0
:100ED00090ED000A534890ED001A30EE010AB0EE92
:100EE000001AC0EE011A4E4890ED000A31EE800A59
:100EF00080ED000A494890ED000A4A4880ED000A5A
:100F0000444890ED000A7047474890ED000A404879
:100F100090ED001AB4EEC10AF1EE10FA2ED240485C
:100F200090ED000A3D4890ED001AC0EE011AF5EE72
:100F3000C01AF1EE10FA17D290ED000A394890ED80
:100F4000001A30EE010AB0EE001AC0EE011A344861
:100F500090ED000A31EE800A80ED000A2F4890EDF6
:100F6000000A304880ED000A294890ED000A2E481A
:100F700080ED000A264890ED000AC4E7274890ED6E
:100F8000000A284890ED001A30EE010AB0EE001A6F
:100F9000C0EE011A224890ED000A31EE800A80ED81
:100FA000000A1E4890ED000A1E4880ED000A1E4807
:100FB00090ED000AA7E79FED1D0A1A4880ED000A90
:100FC0009FED1A0A184880ED000A9FED180A144890
:100FD00080ED000A9FED150A104880ED000A704769
:100FE00000B5F0EE401AB0EE610AFFF713FFB0EE65
:100FF000600AFFF71FFFB0EE410AFFF717FF00BDC1
:101000005800002034000020500000205400002030
:101010003C0000204000002038000020300000206C
:101020004C00002044000020480000200000000088
:1010300010B5A7216320FFF787FDA7216320FFF7E5
:10104000CFFDA7216320FFF71DFEA7216320FFF737
:1010500064FE10BD10B504462146184801F047FA59
:101060006321174801F03DFA10BD10B50446214632
:10107000124801F036FA6321114801F034FA10BD2C
:1010800010B56320FFF7E6FF6320FFF7EEFF10BD0A
:1010900010B504466321094801F029FA21460848A1
:1010A00001F01FFA10BD10B504466321034801F09A
:1010B00018FA2146024801F016FA10BD000001405E
:1010C0000040014000B589B00121042001F0E3FF98
:1010D0000121082001F096FF02220C21994800F01E
:1010E00002FD02220D21974800F0FDFC4FF4405014
:1010F000079002208DF8200003208DF821000120A8
:101100008DF822008DF8230007A98E4800F060FCBE
:101110004FF6FF7005900420ADF810000A20ADF8DE
:1011200018000020ADF8120004A9874800F0EBFF7A
:1011300000231A460121844801F059FD01A801F05D
:10114000F0FB0620ADF80C0001A97F4801F0B2FBCE
:1011500001217D4801F08CFC012211467A4801F002
:1011600073FC00207849243108600121764801F0A1
:1011700053F809B000BD00B589B00121022001F08B
:101180008AFF0121042001F03DFF022206216F4861
:1011900000F0A9FC022207216C4800F0A4FCC0204A
:1011A000079002208DF8200003208DF821000120F7
:1011B0008DF822008DF8230007A9644800F008FC90
:1011C0004FF6FF7005900420ADF810000A20ADF82E
:1011D00018000020ADF8120004A95D4800F093FF4C
:1011E00000231A4601215A4801F001FD01A801F02F
:1011F00098FB0620ADF80C0001A9554801F05AFBF8
:101200000121534801F034FC01221146504801F0FD
:101210001BFC00204E492431086001214C4800F09D
:10122000FBFF09B000BD4848103000884648103028
:10123000008820F00100444910310880704744487C
:101240001030008842481030008820F001004049EA
:101250001031088070477FB505460C4601210846CD
:1012600001F019FF0295ADF804400020ADF80C0024
:10127000ADF8060001A94FF0804000F044FF0122C4
:101280001146900701F0E0FB1C208DF800000020C3
:101290008DF8010003208DF8020001208DF8030075
:1012A000684600F0A4FA0121880700F0B5FF7FBD71
:1012B00010B50121880701F0DEFB002841D0012193
:1012C000880701F0E9FB20482430006800B221497A
:1012D00008601F482430006800B21F4908601F489A
:1012E000007838B318482430006800B21949086003
:1012F00017482430006800B21749086000201249DE
:1013000024310860124924310860154800881149C9
:101310000988084400B2124908800846B0F9000064
:10132000B0F5C36F06DB002008800E480068401C43
:101330000C49086000200449243108600449243124
:10134000086010BD000C0240000800400008024088
:10135000000400405C000020600000200800002025
:10136000680000206400002030B58BB004460D46B4
:101370000121082001F08FFE0121084601F042FE04
:1013800002220121214800F0AEFB022009908DF8D5
:10139000280003208DF8290000208DF82A00012064
:1013A0008DF82B0009A9194800F012FBA8B2ADF87E
:1013B00018000020ADF81A000794ADF8200006A927
:1013C000134800F0A0FE6020ADF804000120ADF845
:1013D00006000020ADF8100001A90D4800F061FFE3
:1013E00008210B4801F0BAF80121094800F0F6FE87
:1013F0000121074800F010FF0BB030BD10B50446C6
:101400002146034801F06FF810BD000000000240C3
:10141000000C004010B504466FF0040000F034FAF0
:10142000E11704EB5171C1F3C701394A117010463D
:10143000007800EB4001C1EBC0104FF6FF7101EAEC
:10144000C0003449088010BD0146314A12784A4331
:101450004FF0E0235A6100229A611A46126942F065
:1014600001021A6100BF4FF0E022106900F0010292
:101470001AB100F48032002AF5D04FF0E022126950
:1014800022F001024FF0E0231A6100229A617047B6
:101490000146204A12884A434FF0E0235A61002255
:1014A0009A611A46126942F001021A6100BF4FF0B8
:1014B000E022106900F001021AB100F48032002A23
:1014C000F5D04FF0E022126922F001024FF0E02344
:1014D0001A6100229A61704770B504464FF4077094
:1014E00094FBF0F0C6B24FF4077094FBF0F100FBF0
:1014F000114085B205E04FF40770FFF7C9FF701E79
:10150000C6B2002EF7D115B12846FFF7C1FF70BD56
:101510006A0000206C000020014600BF704700BF39
:101520009A4A128802F04002002AF9D0C2B2974BC0
:101530001B1D1A80704710B588B00446012108466B
:1015400001F060FD0121102001F0B6FD0722092104
:101550008F4800F0C8FA07220A218D4800F0C3FA2C
:101560004FF4C060069002208DF81C008DF81D001D
:1015700000208DF81E0001208DF81F0006A9844868
:1015800000F026FA02940020ADF80C00ADF80E0031
:10159000ADF81000ADF814000C20ADF8120002A94F
:1015A0007C4800F040FB01217A4800F0C4FB012296
:1015B00040F22551774800F074FC25208DF8040096
:1015C00003208DF805008DF8060001208DF8070036
:1015D00001A800F00CF908B010BD10B540F225517B
:1015E0006C4800F099FC10B36A4800F0D3FBC4B219
:1015F0006948008800F40040C8B96748008800F4D2
:10160000804060B10A2C03D000206349088020E0AC
:101610006148008840F400405F49088019E00D2CC3
:1016200006D15D48008840F480405B49088010E0A6
:1016300059480088C0F30D0058490C54564800889A
:10164000401C5549088008460088C72801DD002055
:10165000088010BD10B5044600BF80214D4800F041
:1016600045FC0028F9D021464A4800F08FFB10BD08
:1016700010B588B004460121084601F0C3FC0121E1
:10168000480401F008FD07220221414800F02BFA2E
:10169000072203213E4800F026FA0C200690022083
:1016A0008DF81C008DF81D0000208DF81E00012013
:1016B0008DF81F0006A9364800F08AF90294002030
:1016C000ADF80C00ADF80E00ADF81000ADF8140048
:1016D0000C20ADF8120002A92C4800F0A4FA012158
:1016E0002A4800F028FB012240F22551274800F04B
:1016F000D8FB26208DF8040003208DF805008DF816
:10170000060001208DF8070001A800F070F808B06D
:1017100010BD10B540F225511C4800F0FDFB10B380
:101720001A4800F037FBC4B21D48008800F400409E
:10173000C8B91B48008800F4804060B10A2C03D06F
:1017400000201749088020E01548008840F4004038
:101750001349088019E00D2C06D11148008840F487
:1017600080400F49088010E00D480088C0F30D004C
:101770000A490C540A480088401C09490880084658
:101780000088C72801DD0020088010BD004400400B
:10179000000002400010014074000020880000207A
:1017A000760000200948804709480047FEE7FEE729
:1017B000FEE7FEE7FEE7FEE7FEE7FEE7FEE7FEE701
:1017C00004480549054A064B7047000071090008A6
:1017D00089010008B0010020B0070020B0030020FC
:1017E000B003002032490143324A1160704770B59E
:1017F000002100230F22C4781CB32E4C246804F46B
:10180000E064C4F5E064C4F30721C1F10404E3B269
:101810000A4144789C40E1B28478144021430C078B
:10182000210E254C05786155047804F01F0501242C
:10183000AC4005786D11AD0005F1E025C5F800411B
:1018400009E0047804F01F050124AC401B4D067824
:10185000761145F8264070BD194A0A400243154BDF
:101860001B1F1A60704739B1124A121D12680243D9
:10187000104B1B1D1A6006E00E4A121D12688243AF
:101880000C4B1B1D1A607047042808D14FF0E02153
:10189000096941F004014FF0E022116107E04FF0C7
:1018A000E021096921F004014FF0E0221161704745
:1018B0000000FA050CED00E000E400E080E100E04B
:1018C00080FFFF1F10B504469848844208D10121CB
:1018D000084601F002FC0021012001F0FEFB76E049
:1018E0009348844208D10121022001F0F6FB002137
:1018F000022001F0F2FB6AE08E48844208D1012107
:10190000042001F0EAFB0021042001F0E6FB5EE088
:101910008948844208D10121082001F0DEFB002122
:10192000082001F0DAFB52E08448844208D101210A
:10193000102001F0D2FB0021102001F0CEFB46E088
:101940007F48844208D10121202001F0C6FB0021FC
:10195000202001F0C2FB3AE07A48844208D10121FC
:10196000402001F0BAFB0021402001F0B6FB2EE040
:101970007548844208D10121802001F0AEFB00218E
:10198000802001F0AAFB22E07048844208D10121A6
:10199000801501F0A2FB0021A01501F09EFB16E0CE
:1019A0006B48844208D10121401501F096FB0021CB
:1019B000601501F092FB0AE06648844207D10121DC
:1019C000001501F08AFB0021201501F086FB10BDF7
:1019D000F0B50A4600210023002400BF3DE00125A8
:1019E00005FA01F3156805EA03049C4234D1056841
:1019F0004F000326BE40B543056015794E00B54043
:101A00000668354305601579012D02D01579022D40
:101A100016D185684F000326BE40B54385605579D1
:101A20004E00B540866835438560456801268E4086
:101A3000B5434560456896798E40B6B235434560FA
:101A4000C5684F000326BE40B543C560D5794E003A
:101A5000B540C6683543C560491C1029BFD3F0BDE9
:101A60004FF6FF7101600021017141718171C171F7
:101A7000704708B54FF480320092009A0A430092F2
:101A8000009AC261C161009AC261C2690092C269D2
:101A9000009208BD0246002013690B400BB10120E3
:101AA00000E0002070470146086980B27047024696
:101AB000002053690B400BB1012000E0002070476B
:101AC0000146486980B2704701837047418370477F
:101AD0000AB1018300E04183704741617047426968
:101AE0004A4042617047F0B5002300244D07ED0ED7
:101AF00002FA05F3CE1000F1200555F826504E07E6
:101B0000F70E0F26BE40B543CF1000F1200646F871
:101B10002750CE1000F1200555F8265045EA030461
:101B2000CE1000F1200545F82640F0BD000002402F
:101B30000004024000080240000C02400010024075
:101B40000014024000180240001C02400020024025
:101B5000002402400028024010B50446FA4884429E
:101B600008D10121102001F0FCFA0021102001F021
:101B7000F8FA57E0F548844209D10121480401F000
:101B8000DFFA00214FF4003001F0DAFA4AE0F048C1
:101B9000844209D10121880401F0D2FA00214FF4D6
:101BA000802001F0CDFA3DE0EA48844209D10121CC
:101BB000C80401F0C5FA00214FF4002001F0C0FA7A
:101BC00030E0E548844209D10121080501F0B8FA66
:101BD00000214FF4801001F0B3FA23E0DF48844283
:101BE00008D10121202001F0BCFA0021202001F0C1
:101BF000B8FA17E0DA48844209D10121880701F0D8
:101C00009FFA00214FF0804001F09AFA0AE0D5488F
:101C1000844207D10121400501F092FA00216005BC
:101C200001F08EFA10BD2DE9FF4705460E4600244F
:101C3000A14600BFA046B08900B100BF2C8A24F4A1
:101C40004054F08804432C82AC8941F20C608443F8
:101C5000B08831890843718908430443AC81AC8A58
:101C600024F44074B0890443AC82684601F0F9F86A
:101C7000B548854202D0B948854202D1DDF80C90C2
:101C800001E0DDF80890A88900F4004040B109EBBC
:101C9000C90000EB091031684900B0FBF1F707E01B
:101CA00009EBC90000EB091031688900B0FBF1F7BE
:101CB0006420B7FBF0F004012009642101FB1078D7
:101CC000A88900F4004040B1322000EBC800B0FB0E
:101CD000F1F000F00700044308E0322000EB0810A8
:101CE0006421B0FBF1F000F00F0004432C81BDE84B
:101CF000FF874FF41651016000218180C18001816E
:101D00000C21418100218181704710B502460020DD
:101D1000108A20F470600B884C8823438C882343FE
:101D2000CC8823431843108210BD002101804180DC
:101D30008180C180704721B1828942F40052828142
:101D400004E082894DF6FF731A4082817047028B4E
:101D500002F47F420283028B0A430283704721B15F
:101D6000828942F40042828103E08289C2F30E023A
:101D70008281704721B1828A42F40062828204E04B
:101D8000828A4FF2FF731A4082827047C1F30802C1
:101D90008280704701468888C0F308007047028A35
:101DA0004FF6F0731A400282028A0A430282704799
:101DB00021B1828942F00202828104E082894FF6D9
:101DC000FD731A408281704782894FF2FF731A4077
:101DD000828182890A4382817047028A4FF6DF73CB
:101DE0001A400282028A0A430282704721B1028AA3
:101DF00042F48042028204E0028A4BF6FF731A40EA
:101E000002827047818941F001018181704721B1CF
:101E1000828A42F00802828204E0828A4FF6F773D7
:101E20001A4082827047028BD2B20283028B42EA4E
:101E300001220283704721B1828A42F0200282820D
:101E400004E0828A4FF6DF731A408282704721B124
:101E5000828A42F01002828204E0828A4FF6EF7397
:101E60001A4082827047828A4FF6FB731A40828240
:101E7000828A0A438282704721B1828A42F002023A
:101E8000828204E0828A4FF6FD731A408282704794
:101E90001AB1838A0B43838202E0838A8B43838255
:101EA0007047F0B50346002400260025002040F6C8
:101EB0006A17B94200D100BF1846C1F3421401F0BD
:101EC0001F06012707FA06F5012C01D10C3004E0AA
:101ED000022C01D1103000E014301AB107682F43F2
:101EE000076002E00768AF430760F0BD02460020CC
:101EF000B1F5007F00D100BF13880B400BB101206A
:101F000000E00020704701F40072B2F5007F00D1BC
:101F100000BFCA430280704770B502460024002308
:101F20000025002040F66A16B14200D100BFC1F37F
:101F3000421501F01F03012606FA03F3012D13D108
:101F40009689334017E00000001001400044004033
:101F500000480040004C0040005000400014014088
:101F600000780040007C0040022D02D1168A3340E8
:101F700001E0968A33400C12012606FA04F4168812
:101F8000344013B10CB1012000E0002070BD10B549
:101F90000022002340F66A14A14200D100BF0A12B9
:101FA00001249440A3B2DC43048010BD10B5044664
:101FB000FE48844208D10121084601F0D2F80021F0
:101FC000012001F0CEF89DE0B4F1804F08D101214D
:101FD000084601F0B5F80021012001F0B1F891E0C8
:101FE000F348844208D10121022001F0A9F8002120
:101FF000022001F0A5F885E0EE48844208D10121D5
:10200000042001F09DF80021042001F099F879E006
:10201000E948844208D10121082001F091F800210B
:10202000082001F08DF86DE0E448844208D10121D8
:10203000102001F085F80021102001F081F861E006
:10204000DF48844208D10121202001F079F80021E5
:10205000202001F075F855E0DA48844208D10121CA
:10206000022001F07EF80021022001F07AF849E018
:10207000D548844209D10121080401F072F80021F9
:102080004FF4803001F06DF83CE0D048844209D133
:102090000121480401F065F800214FF4003001F0FF
:1020A00060F82FE0CA48844209D10121880401F078
:1020B00058F800214FF4802001F053F822E0C54881
:1020C000844208D10121402001F03AF8002140204B
:1020D00001F036F816E0C048844208D10121802082
:1020E00001F02EF80021802001F02AF80AE0BB4818
:1020F000844207D10121801501F022F80021A015AA
:1021000001F01EF810BD00220288A84B98420ED0A4
:10211000AC4B98420BD0B0F1804F08D0A44B984202
:1021200005D0A44B984202D0A34B984204D14FF65D
:102130008F731A404B881A43A04B984207D0A04B8C
:10214000984204D04FF6FF431A400B891A4302808D
:102150004B68C3620B880385944B984202D0994B1D
:10216000984201D18B7A03860123838270474FF016
:10217000FF314160002101800181418081727047FF
:102180000185828270470A46002101884FF68F73CD
:10219000194011430180704741627047C162704726
:1021A0000146486A70470146088D704721B1028890
:1021B00042F00202028004E002884FF6FD731A40EA
:1021C0000280704721B1028842F00402028004E0DC
:1021D00002884FF6FB731A400280704721B10288D3
:1021E00042F08002028004E002884FF67F731A40BA
:1021F0000280704702884FF6F7731A400280028807
:102200000A430280704702884FF6FF431A4002805B
:1022100002880A430280704721B1028842F001021D
:10222000028004E002884FF6FE731A400280704775
:1022300070B5002400220023058C4FF6FE76354051
:102240000584028C8388048B4FF68F752C40B51E55
:102250002C400D882C43751E2A408D892A434D88B9
:102260002A43524DA84202D0564DA84213D14FF6F0
:10227000F7752A40CD892A434FF6FB752A408D8891
:102280002A434FF6FF652B404FF6FF552B400D8A32
:102290002B434D8A2B43838004838D6845630284DE
:1022A00070BD70B5002400220023058C4FF6EF7638
:1022B00035400584028C8388048B48F6FF752C40DA
:1022C0004FF6FF452C400D884FF6FF7606EA0525B0
:1022D0002C434FF6DF752A408D8906EA05152A43FF
:1022E0004D8806EA05152A43304DA84202D0354DE7
:1022F000A8421DD14FF67F752A40CD894FF6FF7653
:1023000006EA05152A434FF6BF752A408D8806EA6E
:1023100005152A434FF6FF352B404FF2FF752B4032
:102320000D8A06EA85052B434D8A06EA85052B436F
:10233000838004838D688563028470BD70B500243A
:1023400000220023058C4FF6FF6635400584028C81
:102350008388848B4FF68F752C404FF6FC752C408C
:102360000D882C434FF6FF552A408D894FF6FF7696
:1023700006EA05252A434D8806EA05252A430B4D22
:10238000A84202D00F4DA84238D14FF2FF752A4023
:10239000CD894FF6FF7606EA05252A434FF6FF352D
:1023A0002A408D8806EA05252A4319E000000140ED
:1023B0000004004000080040000C004000100040F5
:1023C000001400400004014000400140004401406E
:1023D0000048014000180040001C00400020004060
:1023E0004EF6FF752B404DF6FF752B400D8A06EA21
:1023F00005152B434D8A06EA05152B4383808483FC
:102400008D68C563028470BD70B50022002300246E
:10241000058C4EF6FF7635400584038C8488828BCC
:1024200048F6FF752A404FF6FF452A400D884FF6C3
:10243000FF7606EA05252A434DF6FF752B408D8968
:1024400006EA05352B434D8806EA05352B43FE4D3C
:10245000A84202D0FD4DA84208D14BF6FF752C4092
:102460000D8A4FF6FF7606EA85152C438480828319
:102470008D680564038470BD0021018041808180E6
:1024800081608181C18101824182704770B50346BC
:10249000002000241846183001258D40ACB21D8C58
:1024A000A5431D8409B108290AD100EB6100056824
:1024B0004FF68F76354005600568154305600FE0DF
:1024C0000D1FC5F34E052844056848F6FF763540D4
:1024D000056005684FF6FF7606EA0226354305607B
:1024E00070BD4163704781637047C1637047016489
:1024F00070470A460021018B4FF68F731940114334
:10250000018370470A460021018B48F6FF7319408A
:102510004FF6FF7303EA02231943018370470A460B
:102520000021818B4FF68F731940114381837047CF
:102530000A460021818B48F6FF7319404FF6FF735E
:1025400003EA02231943818370470A460021018B65
:102550004FF6F77319401143018370470A46002173
:10256000018B4FF2FF7319404FF6FF7303EA02230A
:102570001943018370470A460021818B4FF6F77398
:1025800019401143818370470A460021818B4FF225
:10259000FF7319404FF6FF7303EA02231943818347
:1025A00070470A460021018B4FF6FB731940114317
:1025B000018370470A460021018B4FF6FF33194013
:1025C0004FF6FF7303EA02231943018370470A465B
:1025D0000021818B4FF6FB731940114381837047B3
:1025E0000A460021818B4FF6FF3319404FF6FF73E7
:1025F00003EA02231943818370470A460021018BB5
:102600004FF67F7319401143018370470A4600213A
:10261000018BC1F30E014FF6FF7303EA0223194346
:10262000018370470A460021818B4FF67F73194062
:102630001143818370470A460021818BC1F30E014B
:102640004FF6FF7303EA02231943818370470A465A
:102650000021018C4FF6FD7319401143018470472E
:102660000A460021018C4FF6F7731940114301848B
:1026700070470A460021018C4FF6DF7319404FF670
:10268000FF7303EA02131943018470470A460021CD
:10269000018C4FF67F7319404FF6FF7303EA021364
:1026A0001943018470470A460021018C4FF6FF53FD
:1026B00019404FF6FF7303EA022319430184704760
:1026C0000A460021018C4FF2FF7319404FF6FF7349
:1026D00003EA02231943018470470A460021018C52
:1026E0004DF6FF7319404FF6FF7303EA02331943A7
:1026F0000184704730B5002301248C40A3B2048CC0
:102700009C430484048C02FA01F5ADB22C4304848A
:1027100030BD30B5002304248C40A3B2048C9C430C
:102720000484048C02FA01F5ADB22C43048430BD5C
:10273000828B4FF2FF331A408283828B4FF6FF73F6
:1027400003EA01231A4382837047F0B50C4615460D
:10275000002100220026078C4EF6FF7C07EA0C07BA
:102760000784818B028C4FF6FF7707EA043640F628
:10277000FF4739404FF6FF7707EA052739434FF601
:10278000FF7707EA0337394345F6FF773A4046F4C7
:1027900080573A4381830284F0BD828B4FF6F373F6
:1027A0001A408283828B0A4382837047F0B50C46BD
:1027B0001546002100220026078C4FF6FF6C07EA21
:1027C0000C070784818B028C4FF6FF7707EA0426FB
:1027D0004FF60C7739404FF6FF7707EA03172F4380
:1027E00039434FF2FF573A4046F480773A438183AA
:1027F0000284F0BD028B4FF2FF331A400283028B3A
:102800004FF6FF7303EA01231A4302837047F0B5C2
:102810000C461546002100220026078C4FF6EF7C5F
:1028200007EA0C070784018B028C4FF6FF7707EA53
:10283000041640F6FF4739404FF6FF7707EA0337A3
:1028400039434FF6FF7703E00000014000040140E8
:1028500007EA052739434FF65F773A4046F01007FD
:102860003A4301830284F0BD028B4FF6F3731A40A2
:102870000283028B0A4302837047F0B50C4615466B
:1028800000210022068C4FF6FE773E400684018B25
:10289000028C4FF60C7631407E1C06EA03162E435E
:1028A00031434FF6F576324044F00106324301835E
:1028B0000284F0BD70B505460C46208850B92389C6
:1028C000A28861882846FFF7D8FFE1882846FFF7ED
:1028D000CBFF25E0208804280AD12389A2886188BB
:1028E0002846FFF794FFE1882846FFF783FF17E0AB
:1028F000208808280AD12389A28861882846FFF702
:1029000055FFE1882846FFF748FF09E02389A288A0
:1029100061882846FFF719FFE1882846FFF708FF7E
:1029200070BD002101804180012181800021C18092
:10293000018170472DE9F04105460C46002601272C
:10294000608808B9022600E00026A088012801D18D
:10295000022700E001272088A0B92389A288618886
:102960002846FFF78AFFE1882846FFF77DFF238985
:102970003A4631462846FFF74AFFE1882846FFF7E6
:1029800039FF13E02389A28861882846FFF73FFFBB
:10299000E1882846FFF72EFF23893A46314628462C
:1029A000FFF76BFFE1882846FFF75EFFBDE8F08187
:1029B0000146486B70470146886B70470146C86BFB
:1029C00070470146086C70470A884B881A438B8809
:1029D0001A43CB881A430B891A434B891A438B89B4
:1029E0001A43A0F844207047002101804180818073
:1029F000C180018141818181704731B1B0F84420AB
:102A000042F40042A0F8442005E0B0F84420C2F3AC
:102A10000E02A0F84420704721B1828842F00402DF
:102A2000828004E082884FF6FB731A4082807047F0
:102A300021B1828842F00102828004E082884FF650
:102A4000FE731A40828070471AB183890B438381D9
:102A500002E083898B4383817047818270470246FD
:102A60000020138A0B400BB1012000E000207047CA
:102A7000CA430282704730B502460020002300247A
:102A8000158A05EA0103958905EA010413B10CB121
:102A9000012000E0002030BDCA430282704741EAB5
:102AA0000203A0F8483070471AB183890B43838131
:102AB00002E083898B438381704721B1828842F091
:102AC0000802828004E082884FF6F7731A40828001
:102AD000704701894FF6F8721140018170470A462C
:102AE000002101894FF68F7319401143018170470E
:102AF00030B504460D4629462046FFF7F0FF2089F1
:102B000040F00700208130BD2DE9F04104460D461C
:102B100016461F46602D06D13B460122314620460F
:102B2000FFF775FE05E03B46012231462046FFF7E0
:102B3000A4FE29462046FFF7D2FF208940F0070077
:102B40002081BDE8F08130B50C4600210189C9B271
:102B50004FF6FF7505EA03251543254329430181F7
:102B600030BD2DE9F04105460E4617469846002433
:102B700043463A4631462846FFF7E5FF2C894FF693
:102B8000F870044044F007044FF68F70044044F09E
:102B900070042C81BDE8F081F0B504460D46164660
:102BA0001F463B46324629462046FFF7CCFF208988
:102BB00040F480402081F0BD82884FF68F731A4028
:102BC000828082880A438280704702894FF6F873B8
:102BD0001A40028102890A430281704702894FF636
:102BE0007F731A40028102890A4302817047F0B55F
:102BF0000C4615461E460021002200230189028B47
:102C0000038C4FF6F877394021434FF6FC473A40A2
:102C100040F201173A434FF6DD773B404FF6FF771E
:102C200007EA06172F433B43018102830384F0BD6B
:102C300021B1828842F08002828004E082884FF6CF
:102C40007F731A4082807047A0F8501070470000D0
:102C5000F948006840F00100F74908600020F64993
:102C600008310860F4480068F4490840F2490860F7
:102C7000F348091D0860F348EF4984310860F048C3
:102C80001038091D0860EC48006820F48020EA49EB
:102C900008600020E8490C310860E7498C31086081
:102CA00070470021E44A921C117011460870704769
:102CB00010B501460022002300204A11012A02D14A
:102CC000DD4C236808E0022A03D1DB4C7034236812
:102CD00002E0D94C7434236801F01F0201249440AF
:102CE0001C400CB1012000E0002010BD38B50020D0
:102CF00000900024002500BF3120FFF7D9FF0546D2
:102D00000098401C00900098B0F5A04F01D0002D15
:102D1000F2D03120FFF7CCFF08B1012400E00024FD
:102D2000204638BD01460020C34A106820F0F80054
:102D300040EAC10010607047C34908607047002135
:102D4000BD4A703211701170012802D004280AD1D6
:102D500004E00121B84A7032117005E00521B64A3D
:102D60007032117000E000BF00BF7047B7490860C3
:102D7000704770B5049C41EA82150126C6EB5306E4
:102D800045EA0645054345EA0465AB4E361D356008
:102D900070BDAD4908667047820142EA0172A64BD8
:102DA00084331A607047A8498866704710B583015C
:102DB00043EA016343EA02739F4C8834236010BDE9
:102DC000A14908677047A049C864704702460020BF
:102DD000994B0833186820F0EC6042EA010318436D
:102DE000954B08331860704702460020924B083319
:102DF000186820F0784042EA010318438E4B0833EC
:102E000018607047014600208B4A0832106820F095
:102E1000030008431060704787480830006800F0DE
:102E20000C00704701460020834A0832106820F0E9
:102E3000F000084310607047014600207E4A0832C7
:102E4000106820F4E05008431060704701460020ED
:102E5000794A0832106820F4604040EAC1001060EE
:102E60007047F0B50021002200240225002602232D
:102E7000714F08373F6807F00C0121B1042905D0D4
:102E8000082937D105E0724F076036E0714F0760BF
:102E900033E0694F3F1D3F68C7F38056664F3F1DC3
:102EA0003F6807F03F036EB16A4FB7FBF3F7DFF8F7
:102EB00088C10CF1040CDCF800C0CCF3881C07FBC3
:102EC0000CF40CE0624FB7FBF3F7DFF86CC10CF1C8
:102ED000040CDCF800C0CCF3881C07FB0CF4564F44
:102EE0003F1D3F68C7F301477F1C7D00B4FBF5F72A
:102EF000076002E0564F076000BF00BF4E4F083723
:102F00003F6807F0F0010909534F7A5C0768D74022
:102F10004760494F08373F6807F4E051890A4E4F30
:102F20007A5C4768D7408760434F08373F6807F4AB
:102F30006041490B484F7A5C4768D740C760F0BD95
:102F4000002100F44072B2F5407F0AD13A4A0832BB
:102F5000116821F4F811414A02401143364A0832FF
:102F60001160354A70321268C0F30B031A43324BBA
:102F700070331A60704735494439086070473349E7
:102F800040390860704736490860704701460020A4
:102F9000294A8C32106820F01F004A1E1043264A2E
:102FA0008C321060704701460020234A8C32106832
:102FB00020F4F8504A1E40EA02201F4A8C3210606A
:102FC0007047014600201C4A8C32106820F44010E3
:102FD00008431060704701460020174A8C32106881
:102FE00020F4400008431060704701460020124A58
:102FF0008C32106820F44030084310607047194943
:103000000860704739B10C4A3032126802430A4BEB
:1030100030331A6006E0084A303212688243064BA9
:1030200030331A607047F9B1034A343212680243F0
:10303000014B34331A601CE000380240FFFFF6EA0F
:10304000103000240030002000004742800E47422C
:103050000024F40000127A0078000020FFFCFF0F2B
:103060005C014742E01147428F4A126882438E4B0F
:103070001A60704739B18C4A121D126802438A4B9C
:103080001B1D1A6006E0884A121D12688243864B97
:103090001B1D1A60704739B1834A0C321268024313
:1030A000814B0C331A6006E07F4A0C32126882436F
:1030B0007D4B0C331A60704739B17B4A103212686D
:1030C0000243794B10331A6006E0774A10321268D7
:1030D0008243754B10331A60704739B1724A243AF3
:1030E00012680243704B243B1A6006E06E4A243A91
:1030F000126882436C4B243B1A60704739B16A4AAC
:10310000203A12680243684B203B1A6006E0664A88
:10311000203A12688243644B203B1A60704739B1F1
:10312000614A1C3A126802435F4B1C3B1A6006E07E
:103130005D4A1C3A126882435B4B1C3B1A60704725
:1031400039B1594A143A12680243574B143B1A607A
:1031500006E0554A143A12688243534B143B1A60F6
:10316000704739B1504A103A126802434E4B103B37
:103170001A6006E04C4A103A126882434A4B103BF0
:103180001A60704739B1484A1C3212680243464BF4
:103190001C331A6006E0444A1C3212688243424BD8
:1031A0001C331A60704739B13F4A2032126802431B
:1031B0003D4B20331A6006E03B4A203212688243BE
:1031C000394B20331A60704739B1374A24321268BC
:1031D0000243354B24331A6006E0334A2432126826
:1031E0008243314B24331A60704739B12E4A2C3256
:1031F000126802432C4B2C331A6006E02A4A2C3208
:1032000012688243284B2C331A60704739B1264A22
:10321000303212680243244B30331A6006E0224AEF
:10322000303212688243204B30331A6070470128D5
:1032300008D11D493C31096841F008011A4A3C3265
:10324000116007E018493C31096821F00801164A6D
:103250003C321160704739B1134A273A1278024361
:10326000114B273B1A7006E00F4A273A1278824327
:103270000D4B273B1A7070470B484030006840F0F8
:103280008070094940310860704701460020064AB5
:10329000283A12680A400AB1012000E00020704775
:1032A000014926390870704734380240704770472A
:1032B000704770477047754600F02CF8AE46050021
:1032C0006946534620F00700854618B020B5FEF742
:1032D00077FABDE820404FF000064FF000074FF0AE
:1032E00000084FF0000B21F00701AC46ACE8C00924
:1032F000ACE8C009ACE8C009ACE8C0098D4670472D
:1033000010B50446AFF300802046BDE81040FCF73E
:1033100084BF0000004870475001002010B591EABA
:10332000030F48BF83F0004300F13A82841A71EB27
:10333000030C05D2121943EB0C03001B61EB0C01CB
:10334000DFF824E14FEA1154A4EB135C1EEA430FAB
:1033500018BF9EEA445F73D023EA0E03DCF1200E0F
:1033600021EA045143F4801332D322FA0CFE10EB0D
:103370000E0023FA0CFE41EB0E01CCF1200E03FAF5
:103380000EFE10EB0E0051F10001B1F5801FCCF1E3
:10339000200E32D201EB045112FA0EF2BDE81040B9
:1033A00058BF7047401C38BF5FEA420218BF7047E1
:1033B000002814BF20F0010041F100014FEA410351
:1033C00013F5001F38BF7047A1F1C04100F0CEB91E
:1033D000012A43EB0302ACF1200CDCF11F0E32BFDB
:1033E0004FF0000E23FA0CF310EB030041EB0451F5
:1033F000B4EB115FD0D0A1EB045101F58011490865
:103400005FEA300001EB04510ED350F1000038BFE9
:1034100012FA0EFE08D1BDE81040C9E7401C38BFC3
:103420005FEA4202CAD1C3E7BDE810404FEA410358
:1034300013F5001F38BF7047A1F1C04100F096B9E5
:103440009EEA445F08D011EA5E0FBDE8104004BF59
:1034500001F0004100207047BDE8104070B500F059
:1034600037F900BF64FBBE3E0000E0FF4FEA4103B6
:103470004FEA5353A3F58063D3F11E03C8BFD3F1C2
:10348000210C0CDD4FF0004242EAC12242EA5052C8
:1034900032FA03FC8CEAE17CACEBE1707047102B54
:1034A000C4BF0020704703F5787CBCF1FF3F04D017
:1034B0006FF0004282EA2100704770B500F008F911
:1034C0004992248000207047F2E700004FEA115330
:1034D000A3F58063D3F11E03A8BFD3F1200C08DB52
:1034E0004FF0004242EAC12252EA505232FA03F04F
:1034F000704709420BD4102BC4BF0020704703F55E
:10350000787CBCF1FF3F05D04FF0FF3070474FF0A3
:103510000000704770B500F0DBF800BF49922480CE
:1035200000207047F0E710F0004248BF4042B0FA78
:1035300080F310FA03F10AD0C3F11D0303F5806391
:103540004FEA415002EB035202EBD12170474FF09A
:1035500000007047B0FA80F310FA03F10AD0C3F10B
:103560001D0303F580634FEA41504FEA035202EB1B
:10357000D12170474FF0000070470000DFF848C1CC
:1035800070B51CEA111E1EBF1CEA13159EEA0C0F33
:1035900095EA0C0F00F06F8081EA030423EA4C13D4
:1035A0004EEAD47E21EA4C1141F4801143F4801399
:1035B000AE44A1FB024CA0FB0365AEF17F7E361941
:1035C00055EB0C05A1FB034C4CF10003A0FB021CC6
:1035D00016EB0C06654153F10003094218BF46F093
:1035E000010613F4007F0BD14FEA03314FEA053097
:1035F000340341EA155140EA16506FF003020AE025
:103600004FEAC3214FEAC520F40241EA555140EA8E
:1036100056506FF0020202EB2E4201EB025585EA92
:10362000CE710AD05FEA440C18BF24F0004450F178
:10363000000041F1000120EAD47040F2FE7C6245B6
:1036400000D270BDA84214BF4FF080444FF04044F8
:10365000002E08BF0024BEF1806FA8BFA1F1C041B9
:10366000BDE8704080F282804FF0000001F1C0415F
:1036700001F0004170479EEA0C0F0CEA131518BFC9
:1036800095EA0C0F06D04FF0000081EA030E0EF011
:10369000004170BD00F01CF88900013E00F007B841
:1036A00000F009B84FEA430C5FEA5C5C08D081EA9D
:1036B000030100F05BB84FEA410C5FEA5C5CF6D1B5
:1036C0004FF00000014970470000FF070000F87F3D
:1036D0000EF1020E2EF0030E5EF8046B364205D496
:1036E000012A43EB030515F5001F12D8012841EB11
:1036F000010C1CF5001F0CD80ED14FEAD17C15F53A
:10370000001F0CEB4C0C0CF1020C08BF4CEBD37CF3
:1037100004E04FF0080C01E04FEAD37C0CEB4C05C1
:1037200026FA05F606F00706B6F1040C06D20EEBF3
:10373000860CBDE870404CF0010C6047DFE80CF0EF
:10374000090B02024FF000414FF00000A1F50021EB
:1037500070BD19461046012851EB010418BFD4F57D
:10376000001484BF002001F0004170BD0808A0F5DE
:1037700000114FEA3101704791EA030F10B581F053
:1037800000413FF5D3AD83F0004300F009B80000DD
:1037900010B591EA030F48BF83F000433FF5C6AD73
:1037A000841A71EB030C07D212198CF0004C43EB16
:1037B0000C03001B61EB0C01DFF8A4E14FEA11548C
:1037C000A4EB135C1EEA430F18BF9EEA445F00F0AF
:1037D000B08023EA6E03524221EA0451C3EB6E0328
:1037E00038BF5B1EDCF1200E25D322FA0CFE10EB55
:1037F0000E0043FA0CFE41EB0E01CCF1200E03FA51
:103800000EFE10EB0E0051F10001CCF1200E29D478
:1038100012FA0EF201EB0451BDE8104058BF704798
:10382000401C1CBFB2F1004F704700280CBF491C60
:1038300020F00100704712EB020E43EB030218BFA9
:103840004FF0010E4EEA4202ACF1200CDCF11E0EEC
:1038500054D943FA0CFE10EB0E0051F1FF31CCF1BC
:103860001E0ED5D50EF1010E12FA0EFE404141EBAF
:10387000010101EB445C5FEA5C5C10D910EBDE7087
:1038800001EB045138BFBEF1004FBDE8104018BF36
:10389000704700280CBF491C20F00100704730D24F
:1038A0004FEAD42C11F5001124F400641BD0B1FAB6
:1038B00081F20B3AA41AA41ED2F12003914030FAEF
:1038C00003F31943904001EBCC71002C01EB045140
:1038D000BDE81040A8BF704701F1C0414FF00000A3
:1038E00001F000417047B0FA80F310FA03F100D103
:1038F00010BDE41A173C4805C90AE4E701EB04517E
:1039000010BD491001EB0451BDE810404FEA3000F2
:1039100002E04FF0000170474A0008BF0042F8D0B3
:10392000B2F5001F28BF704701F000414FF00000C2
:1039300070479EEA445F07D011EA5E0FBDE8104071
:1039400004BF002100207047BDE8104070B5FFF7AC
:10395000BFFE00BF40DFF63E83F0004110467047D7
:103960000000E0FF4FF04070E1EE100A70470000E9
:10397000903900080000002088000000C401000801
:10398000183A00088800002028070000E00100081D
:1039900000000000000019190000010000000000F4
:1039A000000000001E0000001E000000007A030A54
:1039B00000000000000000000102030406070809DF
:1039C00000000000000000000000000000000000F7
:1039D00000000000000000000000000000000000E7
:1039E00000000000000000000000000000000000D7
:1039F00000000000000000000000000000000000C7
:103A000000000000000000000000000001020304AC
:083A1000010203040607080986
:040000050800018965
:00000001FF
