:020000040800F2
:10000000A80700205114000885050008870500088E
:100010008B0500088F05000893050008000000000C
:10002000000000000000000000000000970500082C
:1000300099050008000000009B0500089D050008C8
:100040006B1400086B1400086B1400086B14000894
:100050006B1400086B1400086B1400086B14000884
:100060006B1400086B1400086B1400086B14000874
:100070006B1400086B1400086B1400086B14000864
:100080006B1400086B1400086B1400086B14000854
:100090006B1400086B1400086B1400086B14000844
:1000A0006B1400086B1400086B1400086B14000834
:1000B0006D0F0008FB0E0008E30E00086B1400082B
:1000C0006B1400086B1400086B1400086B14000814
:1000D0006B140008A1120008BD1300086B1400087F
:1000E0006B1400086B1400086B1400086B140008F4
:1000F0006B1400086B1400086B1400086B140008E4
:100100006B1400086B1400086B1400086B140008D3
:100110006B1400086B1400086B1400086B140008C3
:100120006B1400086B1400086B1400086B140008B3
:100130006B1400086B1400086B1400086B140008A3
:100140006B1400086B1400086B1400086B14000893
:100150006B1400086B1400086B1400086B14000883
:100160006B1400086B1400086B1400086B14000873
:100170006B1400086B1400086B1400086B14000863
:100180006B1400086B14000800F002F800F041F84E
:100190000AA090E8000C82448344AAF10107DA45E2
:1001A00001D100F036F8AFF2090EBAE80F0013F0F3
:1001B000010F18BFFB1A43F001031847BC4B0000A6
:1001C000DC4B0000103A24BF78C878C1FAD8520737
:1001D00024BF30C830C144BF04680C6070470000C1
:1001E0000023002400250026103A28BF78C1FBD840
:1001F000520728BF30C148BF0B607047642902F026
:10020000ED86002070471FB504F0F0FC1FBD10B54F
:1002100010BD02F0BDFF1146FFF7F5FF00F0A0F89A
:1002200002F0DBFF03B4FFF7F2FF03BC00F0D8FFDE
:1002300010B54FF4407001F02BF9A82000F04EFFEC
:1002400000F0B6FA00F052FD4FF4E13000F0D6FFB6
:100250004FF4E13001F061F800F092FD00F0E9FDAB
:1002600042F2CF0140F2F31000F053FE40F6CE21EF
:10027000632000F0DDFE98480078633800EE100A35
:10028000B8EEC00AB0EE401A93480078401E00EE67
:10029000100AB8EEC00AF0EE400A9FED900A00F096
:1002A000FDFC10BD70B505460C4601208C49087058
:1002B000284600F04BFD8B4890ED000AB8EEC00ACE
:1002C00000F01AFC884890ED000AB8EEC00A00F071
:1002D00017FC864880ED000A824800688249096858
:1002E00088421EDA00EE104AB8EE400A7F49D1ED8E
:1002F000000A30EE600ABCEEC00A10EE101AC8B256
:1003000000F02FFD00EE104AB8EE400A7748D0ED1D
:10031000000A30EE600ABCEEC00A10EE100AC4B249
:100320001DE000EE104AB8EE400A7049D1ED000A17
:1003300030EE200ABCEEC00A10EE101AC8B200F06F
:1003400010FD00EE104AB8EE400A6848D0ED000AF1
:1003500030EE200ABCEEC00A10EE100AC4B270BD26
:100360002DED0C8BFFF764FF2B2000F0ABFE4FF45C
:100370007A7000F015FF5848007800F0C9FC5C481E
:10038000007800F0D0FC9FED5B1ADFED540A9FED82
:100390005A0A00F089FB9DE05848008800F40040AC
:1003A000002852D05548007855490870002055491A
:1003B000087041E052490978524A1278891A481E59
:1003C00004F0B7F841EC1D0BB0EE4D1AF0EE6D1ACB
:1003D0009FED4D0B02F024FFB0EE40BAF0EE60BA94
:1003E0004B49484A1278895CA1F1300004F0A1F829
:1003F00041EC1C0B53EC1B2B04F002F941EC190BE4
:100400004448008804F0ACF841EC1A0B53EC192B6B
:1004100003F04EFE41EC180B04F05EF83D490880F5
:1004200000BF40213C4801F0B7FB0128F9D1354815
:100430000078401C33490870324800783049097808
:100440008842B7DB00202D49088032480088012807
:1004500004D13249087032A002F080FD2AE03C212C
:100460000846FFF71FFF3648006804F062F841ECC9
:100470001A0B9FED340B53EC102B04F0C1F841EC38
:10048000190B9FED320B53EC102B04F0B9F841EC33
:10049000180B04F021F82F4908800846008841F223
:1004A0007C51884206DB00F049FC00200C490870B2
:1004B0001A490870194800780028D0D10948016805
:1004C00025A002F04BFD0848016828A002F046FD77
:1004D00000F086F960E70000000000200AD7233C06
:1004E0000800002050000020540000200C000020D4
:1004F0000100002017B7D138CDCCCC3E68000020D9
:100500000300002002000020000000000000244042
:100510007C000020040000200010014009000020A1
:10052000626567696E20636F6D707574696E6720B0
:1005300064697374616E636521210D0A0000000017
:100540005800002050954AD3FB21094000000000CC
:1005500000004F40060000206C656674456E636FB6
:1005600064657256616C3A25640D0A0072696768A9
:1005700074456E636F64657256616C3A25640D0A4A
:100580000D0A0000704700BFFEE700BFFEE700BF96
:10059000FEE700BFFEE770477047704770470000F6
:1005A0000CB50020019000907648006840F480303F
:1005B0007449086000BF7348006800F40030009080
:1005C0000198401C0190009818B90198B0F5A04F0F
:1005D000F1D16C48006800F4003010B101200090A7
:1005E00001E0002000900098012846D16548403085
:1005F000006840F0805063494031086062480068FC
:1006000040F44040604908605E48083000685D4939
:10061000083108600846006840F400400860084659
:10062000006840F4A05008605848091F0860081F7F
:10063000006840F08070091F086000BF51480068E2
:1006400000F000700028F9D040F2057050490860B1
:100650004C480830006820F003004A49083108601F
:100660000846006840F00200086000BF45480830B6
:10067000006800F00C000828F8D10CBD10B5454802
:10068000006840F47000434908603E48006840F04C
:1006900001003C49086000203A49083108603948A7
:1006A00000683D490840374908603C48091D08601A
:1006B000081F006820F48020091F086000203149CD
:1006C0000C310860FFF76CFF4FF000603149803952
:1006D000086010BD70B50020002202230024022112
:1006E000284D08352D6805F00C0020B1042806D0EF
:1006F000082834D107E02A4D2A4E356033E02A4DD0
:10070000284E35602FE01F4D2D1D2D68C5F38054F8
:100710001C4D2D1D2D6805F03F0154B1224DB5FB38
:10072000F1F5184E361D3668C6F3881605FB06F23D
:1007300009E01B4DB5FBF1F5124E361D3668C6F3C8
:10074000881605FB06F20F4D2D1D2D68C5F30145DA
:100750006D1C6B00B2FBF3F5124E356003E0104DDB
:10076000104E356000BF00BF064D08352D68C5F33B
:1007700003150E4E705D0B4D2D68C540094E35605A
:1007800070BD00000038024000700040085440076F
:10079000003C024088ED00E0FFFFF6FE1030002430
:1007A0000024F4001000002000127A001400002041
:1007B0001CB50121084602F07BFA40200090012080
:1007C0008DF8040000208DF8060003208DF8050048
:1007D00001208DF807006946074800F04FFF1CBD57
:1007E00010B506480068C0430549C1F89802962034
:1007F00000F0D6FC10BD000000000240980240420C
:100800000000404230B58BB004460D460121084639
:1008100002F0A8FA0121102002F04AFA01220E216A
:10082000924800F0B6FF4FF48040099002208DF806
:10083000280003208DF8290000208DF82A000120CF
:100840008DF82B0009A9894800F018FFA8B2ADF86F
:1008500018000020ADF81A000794ADF8200006A992
:10086000834801F0A6FA6020ADF804000120ADF83D
:1008700006000220ADF8100001A97D4801F01AFC25
:1008800008217B4801F0D6FC0121794801F0FCFAEF
:100890000121774801F016FB0BB030BD30B58BB0AD
:1008A00004460D460121084602F05CFA0121084683
:1008B00002F0FEF94FF48070099002208DF82800B4
:1008C00003208DF8290000208DF82A0001208DF8E2
:1008D0002B0009A9674800F0D1FE012208216548D4
:1008E00000F057FFA8B2ADF818000020ADF81A00CC
:1008F0000794ADF8200006A95D4801F05AFA60207F
:10090000ADF804000120ADF806000220ADF810009B
:100910000020039001A9564801F0E0FA082154484C
:1009200001F069FC0121524801F0AEFA0121504862
:1009300001F0C8FA01214E4801F0B5FE0BB030BD00
:1009400030B58BB004460D460121080402F00AFAC6
:100950000121102002F0ACF903220521434800F0E8
:1009600018FF2020099002208DF8280003208DF820
:10097000290000208DF82A0001208DF82B0009A9FC
:100980003A4800F07BFEA8B2ADF818000020ADF8A0
:100990001A000794ADF8200006A9374801F009FABB
:1009A0006020ADF804000120ADF806000220ADF88B
:1009B000100001A9304801F091FA08212E4801F0F9
:1009C0001AFC01212C4801F05FFA01212A4801F0AC
:1009D00079FA0BB030BD30B58BB004460D4601211D
:1009E000080402F0BFF90121102002F061F903228E
:1009F00006211E4800F0CDFE4020099002208DF80F
:100A0000280003208DF8290000208DF82A000120FD
:100A10008DF82B0009A9154800F030FEA8B2ADF8FA
:100A200018000020ADF81A000794ADF8200006A9C0
:100A3000114801F0BEF96020ADF804000120ADF8C6
:100A400006000220ADF8100001A90B4801F07FFA62
:100A50000821094801F0D8FB0121074801F014FAE8
:100A60000121054801F02EFA0BB030BD0010024004
:100A70000000014000000240004001408F4880ED2E
:100A8000000A70478E48D0ED000A60EE200A8D48BB
:100A9000C0ED000A70478A48D0ED000A80EE201AA7
:100AA000894880ED001A704700B5F0EE402AF0EE5C
:100AB000601AB0EE412AB0EE620AFFF7DFFFB0EE37
:100AC000610AFFF7DFFFB0EE420AFFF7E4FF00BD67
:100AD0007B4880ED000A7047F7EE000A80EE801A2E
:100AE000774880ED001A7047784880ED000A70471B
:100AF000774880ED000A7047764880ED000A70471D
:100B0000F0EE400A734890ED000A30EE600A724839
:100B100080ED000A694890ED000A6F4890ED001AD8
:100B200020EE010A674890ED001A6C48D0ED001ADB
:100B300001EE210A684890ED001A6948D0ED001ACC
:100B400031EE611A6048D0ED001A01EE810A654865
:100B500080ED000A90ED000A5D4890ED001AB4EEB9
:100B6000C10AF1EE10FA2DDD90ED000A5D4880ED2E
:100B7000000A5A4890ED000A574890ED001AC0EE5E
:100B8000011AF5EEC01AF1EE10FA17D290ED000A34
:100B9000534890ED001A30EE010AB0EE001AC0EE94
:100BA000011A4E4890ED000A31EE800A80ED000AED
:100BB000494890ED000A4A4880ED000A444890ED0B
:100BC000000A7047474890ED000A404890ED001A2F
:100BD000B4EEC10AF1EE10FA2ED2404890ED000AB0
:100BE0003D4890ED001AC0EE011AF5EEC01AF1EE84
:100BF00010FA17D290ED000A394890ED001A30EE45
:100C0000010AB0EE001AC0EE011A344890ED000A55
:100C100031EE800A80ED000A2F4890ED000A30483E
:100C200080ED000A294890ED000A2E4880ED000A68
:100C3000264890ED000AC4E7274890ED000A2848AE
:100C400090ED001A30EE010AB0EE001AC0EE011A63
:100C5000224890ED000A31EE800A80ED000A1E481D
:100C600090ED000A1E4880ED000A1E4890ED000A33
:100C7000A7E79FED1D0A1A4880ED000A9FED1A0AAA
:100C8000184880ED000A9FED180A144880ED000A0C
:100C90009FED150A104880ED000A704700B5F0EE90
:100CA000401AB0EE610AFFF713FFB0EE600AFFF7DB
:100CB0001FFFB0EE410AFFF717FF00BD4C000020F8
:100CC00028000020440000204800002030000020C0
:100CD000340000202C0000202400002040000020D0
:100CE000380000203C0000200000000010B5A721C3
:100CF0006320FFF787FDA7216320FFF7CFFDA72122
:100D00006320FFF71DFEA7216320FFF764FE10BDDF
:100D100010B504462146184801F03FFA63211748F0
:100D200001F035FA10BD10B504462146124801F015
:100D30002EFA6321114801F02CFA10BD10B5632082
:100D4000FFF7E6FF6320FFF7EEFF10BD10B5044686
:100D50006321094801F021FA2146084801F017FAF9
:100D600010BD10B504466321034801F010FA214676
:100D7000024801F00EFA10BD0000014000400140A1
:100D800000B589B00121042001F0DBFF012108201A
:100D900001F08EFF02220C219C4800F0FAFC022296
:100DA0000D219A4800F0F5FC4FF4405007900220C6
:100DB0008DF8200003208DF8210001208DF82200FD
:100DC0008DF8230007A9914800F058FC4EF66020EA
:100DD00005900420ADF810000A20ADF8180000209E
:100DE000ADF8120004A98A4800F0E3FF00231A4678
:100DF0000121874801F051FD01A801F0E8FB062020
:100E0000ADF80C0001A9824801F0AAFB012180483D
:100E100001F084FC012211467D4801F06BFC0020AA
:100E20007B49243108600121794801F04BF809B071
:100E300000BD00B589B00121022001F082FF01212F
:100E4000042001F035FF02220621724800F0A1FCC7
:100E5000022207216F4800F09CFCC020079002206E
:100E60008DF8200003208DF8210001208DF822004C
:100E70008DF8230007A9674800F000FC4EF66020BB
:100E800005900420ADF810000A20ADF818000020ED
:100E9000ADF8120004A9604800F08BFF00231A4649
:100EA00001215D4801F0F9FC01A801F090FB06204A
:100EB000ADF80C0001A9584801F052FB0121564839
:100EC00001F02CFC01221146534801F013FC0020D4
:100ED00051492431086001214F4800F0F3FF09B067
:100EE00000BD4B481030008849481030008820F081
:100EF000010047491031088070474748103000888A
:100F000045481030008820F0010043491031088026
:100F100070477FB505460C460121084601F011FFD8
:100F20000295ADF804400020ADF80C00ADF80600C5
:100F300001A94FF0804000F03CFF012211469007CC
:100F400001F0D8FB1C208DF8000000208DF8010076
:100F500003208DF8020001208DF80300684600F0A0
:100F60009CFA0121880700F0ADFF7FBD10B501217B
:100F7000880701F0D6FB002847D00121880701F03F
:100F8000E1FB23482430006800B22449086022486D
:100F90002430006800B2224908602248007868B313
:100FA0001B482430006800B2A0F57F40FF381B4981
:100FB000086019482430006800B2A0F57F40FF386F
:100FC0001749086000201249243108601249243171
:100FD00008601548008811490988084400B2124980
:100FE00008800846B0F9000010F5C36F06DC002049
:100FF00008800E480068401C0C4908600020044925
:101000002431086004492431086010BD000C0240FE
:10101000000800400008024000040040500000208A
:1010200054000020080000205C0000205800002030
:1010300030B58BB004460D460121082001F081FE39
:101040000121084601F034FE02220121214800F06E
:10105000A0FB022009908DF8280003208DF82900BC
:1010600000208DF82A0001208DF82B0009A91948CD
:1010700000F004FBA8B2ADF818000020ADF81A008B
:101080000794ADF8200006A9134800F092FE6020F6
:10109000ADF804000120ADF806000020ADF8100006
:1010A00001A90D4800F053FF08210B4801F0ACF8EE
:1010B0000121094800F0E8FE0121074800F002FF85
:1010C0000BB030BD10B504462146034801F061F86D
:1010D00010BD000000000240000C004010B50446A6
:1010E0006FF0040000F026FAE11704EB5171C1F330
:1010F000C701394A11701046007800EB4001C1EB7E
:10110000C0104FF6FF7101EAC0003449088010BDDD
:101110000146314A12784A434FF0E0235A610022D7
:101120009A611A46126942F001021A6100BF4FF03B
:10113000E022106900F001021AB100F48032002AA6
:10114000F5D04FF0E022126922F001024FF0E023C7
:101150001A6100229A6170470146204A12884A4368
:101160004FF0E0235A6100229A611A46126942F058
:1011700001021A6100BF4FF0E022106900F0010285
:101180001AB100F48032002AF5D04FF0E022126943
:1011900022F001024FF0E0231A6100229A617047A9
:1011A00070B504464FF4077094FBF0F0C6B24FF4EC
:1011B000077094FBF0F100FB114085B205E04FF49D
:1011C0000770FFF7C9FF701EC6B2002EF7D115B128
:1011D0002846FFF7C1FF70BD5E00002060000020C0
:1011E000014600BF704700BF934A128802F04002D8
:1011F000002AF9D0C2B2904B9A80704710B588B0DF
:1012000004460121084601F053FD0121102001F0A0
:10121000A9FD07220921894800F0BBFA07220A210B
:10122000864800F0B6FA4FF4C060069002208DF8B0
:101230001C008DF81D0000208DF81E0001208DF887
:101240001F0006A97D4800F019FA02940020ADF8AD
:101250000C00ADF80E00ADF81000ADF814000C2035
:10126000ADF8120002A9744800F033FB0121724866
:1012700000F0B7FB012240F225516F4800F067FCF7
:1012800025208DF8040003208DF805008DF8060058
:1012900001208DF8070001A800F0FFF808B010BD8C
:1012A00010B540F22551644800F08CFC10B3624840
:1012B00000F0C6FBC4B26248008800F40040C8B920
:1012C0005F48008800F4804060B10A2C03D0002001
:1012D0005B49088020E05A48008840F400405849A3
:1012E000088019E00D2C06D15548008840F4804054
:1012F0005349088010E052480088C0F30D0051495E
:101300000C544F480088401C4D490880084600880E
:10131000C72801DD0020088010BD10B588B0044644
:101320000121084601F0C4FC0121480401F009FD37
:1013300007220221414800F02CFA072203213F48EE
:1013400000F027FA0C20069002208DF81C008DF882
:101350001D0000208DF81E0001208DF81F0006A939
:10136000364800F08BF902940020ADF80C00ADF87F
:101370000E00ADF81000ADF814000C20ADF812000E
:1013800002A9314800F0A5FA01212F4800F029FBFD
:10139000012240F225512C4800F0D9FB26208DF87F
:1013A000040003208DF805008DF8060001208DF85B
:1013B000070001A800F071F808B010BD10B540F2A8
:1013C0002551214800F0FEFB10B31F4800F038FB08
:1013D000C4B21E48008800F40040C8B91B48008809
:1013E00000F4804060B10A2C03D000201749088027
:1013F00020E01648008840F400401449088019E0B5
:101400000D2C06D11148008840F480400F49088017
:1014100010E00E480088C0F30D000A490C540B4838
:101420000088401C0949088008460088C72801DD5B
:101430000020088010BD00000010014000000240A4
:10144000680000207C000020004400406A0000206A
:101450000948804709480047FEE7FEE7FEE7FEE748
:10146000FEE7FEE7FEE7FEE7FEE7FEE70448054984
:10147000054A064B704700007D06000889010008F8
:10148000A8010020A8070020A8030020A80300202E
:1014900032490143324A1160704770B50021002380
:1014A0000F22C4781CB32E4C246804F4E064C4F505
:1014B000E064C4F30721C1F10404E3B20A414478B3
:1014C0009C40E1B28478144021430C07210E254C46
:1014D00005786155047804F01F050124AC400578B7
:1014E0006D11AD0005F1E025C5F8004109E0047873
:1014F00004F01F050124AC401B4D0678761145F819
:10150000264070BD194A0A400243154B1B1F1A6042
:10151000704739B1124A121D12680243104B1B1D4D
:101520001A6006E00E4A121D126882430C4B1B1D06
:101530001A607047042808D14FF0E021096941F092
:1015400004014FF0E022116107E04FF0E02109694A
:1015500021F004014FF0E022116170470000FA050C
:101560000CED00E000E400E080E100E080FFFF1F00
:1015700010B504469848844208D10121084601F07C
:1015800002FC0021012001F0FEFB76E0934884423A
:1015900008D10121022001F0F6FB0021022001F018
:1015A000F2FB6AE08E48844208D10121042001F058
:1015B000EAFB0021042001F0E6FB5EE0894884425A
:1015C00008D10121082001F0DEFB0021082001F0F4
:1015D000DAFB52E08448844208D10121102001F056
:1015E000D2FB0021102001F0CEFB46E07F48844270
:1015F00008D10121202001F0C6FB0021202001F0AC
:10160000C2FB3AE07A48844208D10121402001F02F
:10161000BAFB0021402001F0B6FB2EE07548844261
:1016200008D10121802001F0AEFB0021802001F0D3
:10163000AAFB22E07048844208D10121801501F004
:10164000A2FB0021A01501F09EFB16E06B4884422E
:1016500008D10121401501F096FB0021601501F031
:1016600092FB0AE06648844207D10121001501F08F
:101670008AFB0021201501F086FB10BDF0B50A465B
:1016800000210023002400BF3DE0012505FA01F3FD
:10169000156805EA03049C4234D105684F0003260F
:1016A000BE40B543056015794E00B5400668354328
:1016B00005601579012D02D01579022D16D18568A6
:1016C0004F000326BE40B543856055794E00B540B6
:1016D000866835438560456801268E40B543456080
:1016E000456896798E40B6B235434560C5684F006F
:1016F0000326BE40B543C560D5794E00B540C668E7
:101700003543C560491C1029BFD3F0BD4FF6FF71AA
:1017100001600021017141718171C171704708B58B
:101720004FF480320092009A0A430092009AC261FC
:10173000C161009AC261C2690092C269009208BD8B
:101740000246002013690B400BB1012000E000208D
:1017500070470146086980B270470246002053690D
:101760000B400BB1012000E00020704701464869A2
:1017700080B2704701837047418370470AB101838B
:1017800000E0418370474161704742694A404261CD
:101790007047F0B5002300244D07ED0E02FA05F363
:1017A000CE1000F1200555F826504E07F70E0F26F3
:1017B000BE40B543CF1000F1200646F82750CE10AA
:1017C00000F1200555F8265045EA0304CE1000F13B
:1017D000200545F82640F0BD00000240000402400C
:1017E00000080240000C02400010024000140240B9
:1017F00000180240001C0240002002400024024069
:101800000028024010B50446FA48844208D101215C
:10181000102001F0FCFA0021102001F0F8FA57E046
:10182000F548844209D10121480401F0DFFA002182
:101830004FF4003001F0DAFA4AE0F048844209D16E
:101840000121880401F0D2FA00214FF4802001F038
:10185000CDFA3DE0EA48844209D10121C80401F0F3
:10186000C5FA00214FF4002001F0C0FA30E0E5484D
:10187000844209D10121080501F0B8FA00214FF492
:10188000801001F0B3FA23E0DF48844208D101213F
:10189000202001F0BCFA0021202001F0B8FA17E066
:1018A000DA48844209D10121880701F09FFA00211A
:1018B0004FF0804001F09AFA0AE0D548844207D1FF
:1018C0000121400501F092FA0021600501F08EFA35
:1018D00010BD2DE9FF4705460E460024A14600BF76
:1018E000A046B08900B100BF2C8A24F44054F0888F
:1018F00004432C82AC8941F20C608443B088318966
:101900000843718908430443AC81AC8A24F44074D1
:10191000B0890443AC82684601F0F9F8B5488542C5
:1019200002D0B948854202D1DDF80C9001E0DDF823
:101930000890A88900F4004040B109EBC90000EB11
:10194000091031684900B0FBF1F707E009EBC90065
:1019500000EB091031688900B0FBF1F76420B7FB98
:10196000F0F004012009642101FB1078A88900F43B
:10197000004040B1322000EBC800B0FBF1F000F0B5
:101980000700044308E0322000EB08106421B0FB9C
:10199000F1F000F00F0004432C81BDE8FF874FF405
:1019A0001651016000218180C18001810C2141819B
:1019B00000218181704710B502460020108A20F472
:1019C00070600B884C8823438C882343CC88234346
:1019D0001843108210BD0021018041808180C180A8
:1019E000704721B1828942F40052828104E08289E9
:1019F0004DF6FF731A4082817047028B02F47F42DA
:101A00000283028B0A430283704721B1828942F428
:101A10000042828103E08289C2F30E028281704714
:101A200021B1828A42F40062828204E0828A4FF20B
:101A3000FF731A4082827047C1F3080282807047A8
:101A400001468888C0F308007047028A4FF6F07399
:101A50001A400282028A0A430282704721B18289B7
:101A600042F00202828104E082894FF6FD731A403F
:101A70008281704782894FF2FF731A408281828986
:101A80000A4382817047028A4FF6DF731A4002824E
:101A9000028A0A430282704721B1028A42F48042DC
:101AA000028204E0028A4BF6FF731A4002827047FA
:101AB000818941F001018181704721B1828A42F020
:101AC0000802828204E0828A4FF6F7731A4082820B
:101AD0007047028BD2B20283028B42EA0122028358
:101AE000704721B1828A42F02002828204E0828A19
:101AF0004FF6DF731A408282704721B1828A42F02A
:101B00001002828204E0828A4FF6EF731A408282CA
:101B10007047828A4FF6FB731A408282828A0A4398
:101B20008282704721B1828A42F00202828204E0FE
:101B3000828A4FF6FD731A40828270471AB1838AF7
:101B40000B43838202E0838A8B4383827047F0B524
:101B50000346002400260025002040F66A17B942FB
:101B600000D100BF1846C1F3421401F01F0601273F
:101B700007FA06F5012C01D10C3004E0022C01D14A
:101B8000103000E014301AB107682F43076002E0FC
:101B90000768AF430760F0BD02460020B1F5007F43
:101BA00000D100BF13880B400BB1012000E00020E2
:101BB000704701F40072B2F5007F00D100BFCA4344
:101BC0000280704770B502460024002300250020E3
:101BD00040F66A16B14200D100BFC1F3421501F0D0
:101BE0001F03012606FA03F3012D13D19689334012
:101BF00017E0000000100140004400400048004091
:101C0000004C0040005000400014014000780040AB
:101C1000007C0040022D02D1168A334001E0968AF2
:101C200033400C12012606FA04F41688344013B12E
:101C30000CB1012000E0002070BD10B5002200238F
:101C400040F66A14A14200D100BF0A120124944058
:101C5000A3B2DC43048010BD10B50446FE488442A4
:101C600008D10121084601F0D2F80021012001F03D
:101C7000CEF89DE0B4F1804F08D10121084601F073
:101C8000B5F80021012001F0B1F891E0F348844259
:101C900008D10121022001F0A9F80021022001F061
:101CA000A5F885E0EE48844208D10121042001F026
:101CB0009DF80021042001F099F879E0E948844278
:101CC00008D10121082001F091F80021082001F03D
:101CD0008DF86DE0E448844208D10121102001F024
:101CE00085F80021102001F081F861E0DF4884428E
:101CF00008D10121202001F079F80021202001F0F5
:101D000075F855E0DA48844208D10121022001F03B
:101D10007EF80021022001F07AF849E0D54884429B
:101D200009D10121080401F072F800214FF480303C
:101D300001F06DF83CE0D048844209D1012148040B
:101D400001F065F800214FF4003001F060F82FE059
:101D5000CA48844209D10121880401F058F80021C1
:101D60004FF4802001F053F822E0C548844208D1A6
:101D70000121402001F03AF80021402001F036F81E
:101D800016E0C048844208D10121802001F02EF8DD
:101D90000021802001F02AF80AE0BB48844207D1E4
:101DA0000121801501F022F80021A01501F01EF894
:101DB00010BD00220288A84B98420ED0AC4B98422E
:101DC0000BD0B0F1804F08D0A44B984205D0A44B63
:101DD000984202D0A34B984204D14FF68F731A4019
:101DE0004B881A43A04B984207D0A04B984204D08E
:101DF0004FF6FF431A400B891A4302804B68C362B7
:101E00000B880385944B984202D0994B984201D19C
:101E10008B7A03860123838270474FF0FF31416044
:101E20000021018001814180817270470185828299
:101E300070470A46002101884FF68F7319401143FD
:101E40000180704741627047C16270470146486A2D
:101E500070470146088D704721B1028842F00202A6
:101E6000028004E002884FF6FD731A40028070473A
:101E700021B1028842F00402028004E002884FF699
:101E8000FB731A400280704721B1028842F0800241
:101E9000028004E002884FF67F731A400280704788
:101EA00002884FF6F7731A40028002880A430280C4
:101EB000704702884FF6FF431A40028002880A43A7
:101EC0000280704721B1028842F00102028004E0E2
:101ED00002884FF6FE731A400280704770B50024E6
:101EE00000220023058C4FF6FE7635400584028CD7
:101EF0008388048B4FF68F752C40B51E2C400D88BF
:101F00002C43751E2A408D892A434D882A43524D01
:101F1000A84202D0564DA84213D14FF6F7752A4079
:101F2000CD892A434FF6FB752A408D882A434FF608
:101F3000FF652B404FF6FF552B400D8A2B434D8AF2
:101F40002B43838004838D684563028470BD70B524
:101F5000002400220023058C4FF6EF7635400584DF
:101F6000028C8388048B48F6FF752C404FF6FF45A2
:101F70002C400D884FF6FF7606EA05252C434FF6D8
:101F8000DF752A408D8906EA05152A434D8806EA41
:101F900005152A43304DA84202D0354DA8421DD127
:101FA0004FF67F752A40CD894FF6FF7606EA051574
:101FB0002A434FF6BF752A408D8806EA05152A4345
:101FC0004FF6FF352B404FF2FF752B400D8A06EA86
:101FD00085052B434D8A06EA85052B4383800483C0
:101FE0008D688563028470BD70B5002400220023D3
:101FF000058C4FF6FF6635400584028C8388848B00
:102000004FF68F752C404FF6FC752C400D882C43F5
:102010004FF6FF552A408D894FF6FF7606EA0525D3
:102020002A434D8806EA05252A430B4DA84202D0D3
:102030000F4DA84238D14FF2FF752A40CD894FF697
:10204000FF7606EA05252A434FF6FF352A408D889C
:1020500006EA05252A4319E000000140000400407B
:1020600000080040000C0040001000400014004038
:10207000000401400040014000440140004801408C
:1020800000180040001C0040002000404EF6FF7584
:102090002B404DF6FF752B400D8A06EA05152B43A4
:1020A0004D8A06EA05152B43838084838D68C563BA
:1020B000028470BD70B5002200230024058C4EF60A
:1020C000FF7635400584038C8488828B48F6FF7543
:1020D0002A404FF6FF452A400D884FF6FF7606EA64
:1020E00005252A434DF6FF752B408D8906EA0535F7
:1020F0002B434D8806EA05352B43FE4DA84202D0FE
:10210000FD4DA84208D14BF6FF752C400D8A4FF6C5
:10211000FF7606EA85152C43848082838D680564EA
:10212000038470BD002101804180818081608181B4
:10213000C18101824182704770B5034600200024AE
:102140001846183001258D40ACB21D8CA5431D8466
:1021500009B108290AD100EB610005684FF68F76B6
:10216000354005600568154305600FE00D1FC5F398
:102170004E052844056848F6FF7635400560056839
:102180004FF6FF7606EA02263543056070BD4163CF
:10219000704781637047C1637047016470470A46A6
:1021A0000021018B4FF68F73194011430183704753
:1021B0000A460021018B48F6FF7319404FF6FF7362
:1021C00003EA02231943018370470A460021818BE9
:1021D0004FF68F7319401143818370470A460021DF
:1021E000818B48F6FF7319404FF6FF7303EA022311
:1021F0001943818370470A460021018B4FF6F7731C
:1022000019401143018370470A460021018B4FF2A8
:10221000FF7319404FF6FF7303EA0223194301834A
:1022200070470A460021818B4FF6F773194011431E
:10223000818370470A460021818B4FF2FF7319405A
:102240004FF6FF7303EA02231943818370470A465E
:102250000021018B4FF6FB73194011430183704736
:102260000A460021018B4FF6FF3319404FF6FF73EA
:1022700003EA02231943018370470A460021818B38
:102280004FF6FB7319401143818370470A460021C2
:10229000818B4FF6FF3319404FF6FF7303EA022399
:1022A0001943818370470A460021018B4FF67F73E3
:1022B00019401143018370470A460021018BC1F385
:1022C0000E014FF6FF7303EA02231943018370479F
:1022D0000A460021818B4FF67F7319401143818399
:1022E00070470A460021818BC1F30E014FF6FF7340
:1022F00003EA02231943818370470A460021018CB7
:102300004FF6FD7319401143018470470A460021BE
:10231000018C4FF6F77319401143018470470A4648
:102320000021018C4FF6DF7319404FF6FF7303EA6B
:1023300002131943018470470A460021018C4FF6AD
:102340007F7319404FF6FF7303EA021319430184A8
:1023500070470A460021018C4FF6FF5319404FF693
:10236000FF7303EA02231943018470470A460021E0
:10237000018C4FF2FF7319404FF6FF7303EA0223FB
:102380001943018470470A460021018C4DF6FF7302
:1023900019404FF6FF7303EA023319430184704773
:1023A00030B5002301248C40A3B2048C9C430484E8
:1023B000048C02FA01F5ADB22C43048430BD30B573
:1023C000002304248C40A3B2048C9C430484048C1A
:1023D00002FA01F5ADB22C43048430BD828B4FF27A
:1023E000FF331A408283828B4FF6FF7303EA012387
:1023F0001A4382837047F0B50C461546002100222F
:102400000026078C4EF6FF7C07EA0C070784818BB9
:10241000028C4FF6FF7707EA043640F6FF47394053
:102420004FF6FF7707EA052739434FF6FF7707EAAC
:102430000337394345F6FF773A4046F480573A432D
:1024400081830284F0BD828B4FF6F3731A4082833E
:10245000828B0A4382837047F0B50C4615460021F3
:1024600000220026078C4FF6FF6C07EA0C07078452
:10247000818B028C4FF6FF7707EA04264FF60C7724
:1024800039404FF6FF7707EA03172F4339434FF2DE
:10249000FF573A4046F480773A4381830284F0BD87
:1024A000028B4FF2FF331A400283028B4FF6FF7309
:1024B00003EA01231A4302837047F0B50C46154620
:1024C000002100220026078C4FF6EF7C07EA0C075C
:1024D0000784018B028C4FF6FF7707EA041640F65B
:1024E000FF4739404FF6FF7707EA033739434FF686
:1024F000FF7703E0000001400004014007EA0527E0
:1025000039434FF65F773A4046F010073A4301836C
:102510000284F0BD028B4FF6F3731A400283028BE4
:102520000A4302837047F0B50C461546002100228D
:10253000068C4FF6FE773E400684018B028C4FF6E8
:102540000C7631407E1C06EA03162E4331434FF6CB
:10255000F576324044F00106324301830284F0BD37
:1025600070B505460C46208850B92389A288618839
:102570002846FFF7D8FFE1882846FFF7CBFF25E084
:10258000208804280AD12389A28861882846FFF779
:1025900094FFE1882846FFF783FF17E0208808288A
:1025A0000AD12389A28861882846FFF755FFE18870
:1025B0002846FFF748FF09E02389A288618828465A
:1025C000FFF719FFE1882846FFF708FF70BD0021DB
:1025D00001804180012181800021C18001817047FB
:1025E0002DE9F04105460C4600260127608808B910
:1025F000022600E00026A088012801D1022700E081
:1026000001272088A0B92389A28861882846FFF77E
:102610008AFFE1882846FFF77DFF23893A46314645
:102620002846FFF74AFFE1882846FFF739FF13E005
:102630002389A28861882846FFF73FFFE188284662
:10264000FFF72EFF23893A4631462846FFF76BFFF6
:10265000E1882846FFF75EFFBDE8F0810146486B40
:1026600070470146886B70470146C86B704701464A
:10267000086C70470A884B881A438B881A43CB88AA
:102680001A430B891A434B891A438B891A43A0F8C2
:10269000442070470021018041808180C1800181F8
:1026A00041818181704731B1B0F8442042F4004249
:1026B000A0F8442005E0B0F84420C2F30E02A0F8D0
:1026C0004420704721B1828842F00402828004E0F5
:1026D00082884FF6FB731A408280704721B182884E
:1026E00042F00102828004E082884FF6FE731A40B5
:1026F000828070471AB183890B43838102E083890A
:102700008B43838170478182704702460020138A81
:102710000B400BB1012000E000207047CA43028249
:10272000704730B50246002000230024158A05EAD0
:102730000103958905EA010413B10CB1012000E001
:10274000002030BDCA430282704741EA0203A0F86C
:10275000483070471AB183890B43838102E0838933
:102760008B438381704721B1828842F008028280C6
:1027700004E082884FF6F7731A408280704701891F
:102780004FF6F8721140018170470A460021018915
:102790004FF68F73194011430181704730B50446DD
:1027A0000D4629462046FFF7F0FF208940F007003C
:1027B000208130BD2DE9F04104460D4616461F46E6
:1027C000602D06D13B46012231462046FFF775FEBB
:1027D00005E03B46012231462046FFF7A4FE29468C
:1027E0002046FFF7D2FF208940F007002081BDE896
:1027F000F08130B50C4600210189C9B24FF6FF7552
:1028000005EA0325154325432943018130BD2DE900
:10281000F04105460E4617469846002443463A4680
:1028200031462846FFF7E5FF2C894FF6F870044043
:1028300044F007044FF68F70044044F070042C817C
:10284000BDE8F081F0B504460D4616461F463B46EE
:10285000324629462046FFF7CCFF208940F48040CD
:102860002081F0BD82884FF68F731A408280828863
:102870000A438280704702894FF6F8731A4002813A
:1028800002890A430281704702894FF67F731A401A
:10289000028102890A4302817047F0B50C46154651
:1028A0001E460021002200230189028B038C4FF673
:1028B000F877394021434FF6FC473A4040F2011780
:1028C0003A434FF6DD773B404FF6FF7707EA0617AE
:1028D0002F433B43018102830384F0BD21B18288F1
:1028E00042F08002828004E082884FF67F731A40B3
:1028F00082807047A0F8501070470000F9480068C7
:1029000040F00100F74908600020F64908310860EE
:10291000F4480068F4490840F2490860F348091D8A
:102920000860F348EF4984310860F0481038091D09
:102930000860EC48006820F48020EA490860002024
:10294000E8490C310860E7498C3108607047002184
:10295000E44A921C117011460870704710B5014688
:102960000022002300204A11012A02D1DD4C2368F5
:1029700008E0022A03D1DB4C7034236802E0D94C12
:102980007434236801F01F02012494401C400CB1F0
:10299000012000E0002010BD38B500200090002488
:1029A000002500BF3120FFF7D9FF05460098401CE5
:1029B00000900098B0F5A04F01D0002DF2D031204A
:1029C000FFF7CCFF08B1012400E00024204638BD09
:1029D00001460020C34A106820F0F80040EAC10018
:1029E00010607047C349086070470021BD4A7032CB
:1029F00011701170012802D004280AD104E00121CD
:102A0000B84A7032117005E00521B64A7032117073
:102A100000E000BF00BF7047B7490860704770B55D
:102A2000049C41EA82150126C6EB530645EA064599
:102A3000054345EA0465AB4E361D356070BDAD49B2
:102A400008667047820142EA0172A64B84331A601D
:102A50007047A8498866704710B5830143EA01634F
:102A600043EA02739F4C8834236010BDA149086774
:102A70007047A049C864704702460020994B08334C
:102A8000186820F0EC6042EA01031843954B0833C4
:102A90001860704702460020924B0833186820F0F7
:102AA000784042EA010318438E4B083318607047A0
:102AB000014600208B4A0832106820F003000843CA
:102AC0001060704787480830006800F00C007047BD
:102AD00001460020834A0832106820F0F0000843C5
:102AE00010607047014600207E4A0832106820F4CA
:102AF000E05008431060704701460020794A0832D0
:102B0000106820F4604040EAC10010607047F0B5E2
:102B1000002100220024022500260223714F0837DD
:102B20003F6807F00C0121B1042905D0082937D1ED
:102B300005E0724F076036E0714F076033E0694F80
:102B40003F1D3F68C7F38056664F3F1D3F6807F043
:102B50003F036EB16A4FB7FBF3F7DFF888C10CF1A2
:102B6000040CDCF800C0CCF3881C07FB0CF40CE070
:102B7000624FB7FBF3F7DFF86CC10CF1040CDCF823
:102B800000C0CCF3881C07FB0CF4564F3F1D3F6878
:102B9000C7F301477F1C7D00B4FBF5F7076002E037
:102BA000564F076000BF00BF4E4F08373F6807F021
:102BB000F0010909534F7A5C0768D7404760494FD5
:102BC00008373F6807F4E051890A4E4F7A5C47683E
:102BD000D7408760434F08373F6807F46041490B8F
:102BE000484F7A5C4768D740C760F0BD002100F4C9
:102BF0004072B2F5407F0AD13A4A0832116821F496
:102C0000F811414A02401143364A08321160354AF0
:102C100070321268C0F30B031A43324B70331A60E0
:102C20007047354944390860704733494039086076
:102C3000704736490860704701460020294A8C32A7
:102C4000106820F01F004A1E1043264A8C32106084
:102C5000704701460020234A8C32106820F4F85057
:102C60004A1E40EA02201F4A8C321060704701461B
:102C700000201C4A8C32106820F440100843106079
:102C8000704701460020174A8C32106820F440003B
:102C900008431060704701460020124A8C321068C9
:102CA00020F44030084310607047194908607047AD
:102CB00039B10C4A3032126802430A4B30331A6081
:102CC00006E0084A303212688243064B30331A60FD
:102CD0007047F9B1034A343212680243014B34336E
:102CE0001A601CE000380240FFFFF6EA10300024B2
:102CF0000030002000004742800E47420024F400CC
:102D000000127A006C000020FFFCFF0F5C014742BC
:102D1000E01147428F4A126882438E4B1A60704717
:102D200039B18C4A121D126802438A4B1B1D1A606E
:102D300006E0884A121D12688243864B1B1D1A60EA
:102D4000704739B1834A0C3212680243814B0C330D
:102D50001A6006E07F4A0C32126882437D4B0C33C6
:102D60001A60704739B17B4A103212680243794BBE
:102D700010331A6006E0774A103212688243754BAE
:102D800010331A60704739B1724A243A126802430C
:102D9000704B243B1A6006E06E4A243A1268824364
:102DA0006C4B243B1A60704739B16A4A203A12686A
:102DB0000243684B203B1A6006E0664A203A1268DC
:102DC0008243644B203B1A60704739B1614A1C3A18
:102DD000126802435F4B1C3B1A6006E05D4A1C3AD6
:102DE000126882435B4B1C3B1A60704739B1594AE9
:102DF000143A12680243574B143B1A6006E0554AD6
:102E0000143A12688243534B143B1A60704739B12D
:102E1000504A103A126802434E4B103B1A6006E0CB
:102E20004C4A103A126882434A4B103B1A60704772
:102E300039B1484A1C3212680243464B1C331A60AF
:102E400006E0444A1C3212688243424B1C331A602B
:102E5000704739B13F4A2032126802433D4B20335C
:102E60001A6006E03B4A203212688243394B203315
:102E70001A60704739B1374A243212680243354B21
:102E800024331A6006E0334A243212688243314BFD
:102E900024331A60704739B12E4A2C32126802432B
:102EA0002C4B2C331A6006E02A4A2C3212688243DB
:102EB000284B2C331A60704739B1264A30321268D9
:102EC0000243244B30331A6006E0224A3032126843
:102ED0008243204B30331A607047012808D11D49C6
:102EE0003C31096841F008011A4A3C32116007E0A0
:102EF00018493C31096821F00801164A3C3211603A
:102F0000704739B1134A273A12780243114B273BD5
:102F10001A7006E00F4A273A127882430D4B273B7E
:102F20001A7070470B484030006840F080700949C3
:102F300040310860704701460020064A283A12686E
:102F40000A400AB1012000E00020704701492639FB
:102F50000870704734380240704700000FB40449CD
:102F600010B503AA029800F0DDF810BC5DF814FB60
:102F7000640000202DE9F0410E4604460020206246
:102F80002046E168884730B3252805D0D4E90121DF
:102F90009047206A401CF2E7E168204600278847F6
:102FA000050018D0A5F14100192802D820354FF4AA
:102FB00000673246294620462760FDF71FF940B1D9
:102FC000012804D0F61D26F007060836D8E7361D7E
:102FD000D6E72846DAE7206ABDE8F0812DE9F0411E
:102FE0000646002410687529314616A510D0AFF3A7
:102FF0000080002802DA404213A507E031688A0702
:1030000001D512A502E0490704D511A5012401E06C
:10301000AFF3008000210A2206F1240709E0B0FB8B
:10302000F2FCB0FBF2F302FB1C003030785418467F
:10303000491C0028F3D123462A463046BDE8F0411A
:1030400000F017B8000000002D0000002B00000069
:1030500020000000704770477047704710B500F0BF
:1030600073F8006810BD10B5044600F06DF80460F8
:1030700010BD2DE9F0470D4699469246044600F1F1
:1030800024080168880604D5E06921F01001216058
:1030900000E00120A84201DD471B00E00027A169F4
:1030A0007A1902EB0900081AA0612078C00602D440
:1030B0002046AFF30080002608E0D4E901211AF889
:1030C00006009047206A401C761C20624E45F4DBC7
:1030D0002078C0060AD52046AFF3008006E0D4E988
:1030E000012130209047206A401C2062381EA7F141
:1030F0000107F4DC07E0D4E9012118F80500904746
:10310000206A401C2062281EA5F10105F3DC204640
:10311000AFF300802078000602D50220BDE8F087DA
:103120000120FBE7074B70B50D467B4400F015F816
:103130000446284600F024F810B14FF0FF3070BD6F
:10314000204670BDB9E0FFFF0048704744010020F1
:1031500001694A1C02610878704700B58FB0CDE95B
:1031600001310021059105497944CDE9031011464B
:103170006846FFF7FFFE0FB000BD0000E5FFFFFF50
:10318000007B00F080007047004870474401002039
:103190007546FFF7F9FFAE4605006946534620F035
:1031A0000700854618B020B5FEF760F9BDE820405D
:1031B0004FF000064FF000074FF000084FF0000BF3
:1031C00021F00701AC46ACE8C009ACE8C009ACE8A6
:1031D000C009ACE8C0098D46704710B50446AFF38E
:1031E00000802046BDE81040FDF71CB803B40198EC
:1031F0004100009850EAC12018BF04204A0D18BFB2
:1032000040F0010040F2FF72B2EB515F08BF40F0A6
:103210000200012808BF052002B07047000000002E
:103220002DE9F04D2DED040B2DED0E8B96B0DDE963
:103230002550279CDDF890A025F0004624F000489A
:10324000BAF1000F14BF0121002101EB4502FC4936
:1032500053184A1093422AD3002814BF0123002395
:1032600003EB44030B44F7498B4220D358EA000197
:103270009FEDF59B76D0DFF8D8B35D4503D1BAF169
:10328000000F05D188E0BAF1000F08BF002100D07F
:10329000012101EB450111F5001F08D8002814BFDA
:1032A0000121002101EB440111F5001F0BD99DED17
:1032B000261B9DED240B16B0BDEC0E8B04B0BDE8B3
:1032C000F04D00F069BE0027002DBCBFE1498845E4
:1032D00021DAE1498845A8BF02271CDAC3451ADC78
:1032E000DE4901EB2851142908DDC1F1340220FA2E
:1032F00002F101FA02F282420DD108E058B9C1F19F
:10330000140228FA02F101FA02F2424503D101F057
:103310000101C1F1020756EA0A0124D1002C22DA88
:10332000002D18BF022F01D0012F0AD00220FFF775
:103330009AFE16B0BDEC0E8B04B0BDE8F04D00F067
:1033400013BE0220FFF78FFE00F00EFE51EC100BB3
:1033500000F0A1FE41EC100B16B0BDEC0E8B04B0DA
:10336000BDE8F08D18E09FEDBEAB9FEDBF8B002850
:1033700071D1B848804522D105F1804010F5801008
:1033800008BFBAF1000F07D0B3450ADC002CA8BF74
:103390009DED260BE0DA0DE0B0EE490AF0EE690A89
:1033A000DAE7002C06DA9DED260B51EC100B00F04D
:1033B00072FE6FE0AE48784490ED000BCCE7D84544
:1033C0004DD1002C48DA2EB186423AD1BAF1000F25
:1033D00042D126E0BAF1000F13D00220FFF743FEDE
:1033E00000F0F6FD8DED020B9DED240B8DED000B35
:1033F00010EE900A039961F31E0003909DED020BFD
:10340000AAE78DED02AB9DED240B1AEE901A10EE9B
:10341000900A8DED000B61F31E0003909DED020BF1
:103420009AE78DED028B9DED240B18EE901A10EEAD
:10343000900A8DED000B61F31E0003909DED020BD1
:103440008AE709DA9DED240B51EC190B53EC102B94
:1034500000F0EAFE1EE020E09DED240B7CE78642B2
:103460001BDAB4F1804F0DD0A4F10050B0F1FF5041
:1034700013D1002D11DB9DED240B51EC100B00F04E
:10348000D3FD07E09DED240B53EC102B51EC100BFA
:1034900000F0C2BC41EC100B5EE79DED240B51EC3B
:1034A000100B00F0B5FDBAF1000FCDE90E0142D1CD
:1034B0009FED710B46B3A6F1E040B0F17F600CD0F8
:1034C0005E4538D1002D00DAA7B3022F0CBF0120D2
:1034D0004FF0FF3001F02DF8DCE7002D01DD002C6E
:1034E0000DDA002D01DD002C1FDB002D16DA002C7B
:1034F00014DB012F08BF9FED620B3FF42DAFB0EE40
:103500004A0AF0EE6A0A27E7022F18BF002D0CD0F6
:10351000012F0AD1002DFFF61FAF06E0002DB8BF26
:10352000002C08DA012F3FF417AFB0EE480AF0EE96
:10353000680A11E71BE0012000EBE57050EA070183
:1035400015D0791EB0EE498AF0EE698A084308BFAB
:103550009FED4D8B4E480025804570DD4D494E480E
:10356000884514DDB0420DDB002C19DB2FE0012073
:10357000FFF779FD16B0BDEC0E8B04B0BDE8F04D41
:1035800000F016BDB34502DC002C09DC1FE08642CA
:1035900002DA002C1BDA03E05E452BDD002C16DD81
:1035A0000220FFF760FD00F013FD8DED020B53ECE0
:1035B0001A2B51EC180B01F023F8CDE90001039907
:1035C000019861F31E0003909DED020BC4E60220FA
:1035D000FFF749FD00F00CFD10EE901A18EE900A6E
:1035E0008DED020B8DED008B61F31E0003909DEDC0
:1035F000020BB1E69DED0E0B53EC192B51EC100BA9
:1036000001F00AFA9FED260BCDE9080153EC102BCF
:103610009DED080B51EC100B00F0F2FF9FED221B0B
:1036200053EC112B01F020F99DED081B53EC112BED
:1036300000F0E6FF9FED1E1B53EC112B3CE08CE0ED
:10364000FFFF1F00FFFF0F00000000000000F03F21
:103650000000F03F0000F07F0000404301FCFFFF4E
:10366000000000000000F07F0000000000000000EB
:10367000B6190000000000000000000000000080FB
:10368000000000000000F0FF000000000000F0BF9C
:103690000000E0410000F043FFFFEF3F00000000AA
:1036A000000000000000D03F555555555555D53FF9
:1036B000000000000000E03F01F0D6F89DED080B8F
:1036C00041EC1A0B53EC102B51EC100B00F098FF4F
:1036D00053EC1A2B00F094FF41EC1A0B9FEDFE0BFC
:1036E00053EC102B9DED080B51EC100B00F088FFF4
:1036F00041EC1B0B9FEDFA0B51EC1A0B53EC102B0A
:1037000000F07EFF41EC1A0B9FEDF70B53EC102BF2
:103710009DED080B51EC100B00F072FF53EC1A2BCF
:1037200001F07AF941EC1A0B51EC1B0B53EC1A2BFC
:1037300000F0BEFC0690CDE906519DED060B53EC62
:103740001B2B51EC100B01F067F953EC1A2B01F015
:103750008BF841EC100B00F0A1B90020B6F5801FEA
:103760000EDA9FEDE30B53EC102B9DED0E0B51EC9D
:10377000100B00F045FFCDE90E016FF034000E464E
:1037800000EB2650A0F2FF37C6F31300DA4940F0F1
:103790007F6646F040568842D8BF002408DDD749EE
:1037A0008142C8BF012403DC0024A6F580167F1CDB
:1037B000D348784400EBC4000F9690ED00CB9DED0C
:1037C0000E0B53EC1C2B51EC100B01F025F99DED69
:1037D0000E0B41EC1B0B53EC1C2B51EC100B00F0AF
:1037E00067FC41EC100B51EC190B53EC102B00F063
:1037F0001BFD41EC1D0B51EC1B0B53EC1D2B00F082
:10380000FFFE41EC1A0BBF488DED10AB78441095CC
:1038100090ED000B4FF0005040EA660000EB844052
:103820008DED080B00F5002009909DED080B53EC81
:103830001C2B51EC100B01F0EFF89DED0E1B53EC1F
:10384000112B01F011F841EC100B53EC102B9DEDF6
:10385000100B51EC100B00F0D3FE9DED080B41EC6A
:103860001C0B53EC102B9DED100B51EC100B00F0CA
:10387000C7FE53EC1B2B00F0F7FF53EC1C2B01F0A1
:10388000CBF853EC1D2B00F0BBFE41EC1C0B53ECB2
:103890001A2B51EC1A0B00F0B3FE41EC1B0B9A48AB
:1038A0000621B0EE4B0AF0EE6B0A784400F0E0FA25
:1038B000B0EE401AF0EE601AB0EE41DAF0EE61DAE6
:1038C00053EC1B2B51EC1B0B00F09AFE53EC1D2B01
:1038D00000F096FE9DED100B41EC1B0B53EC1A2BE8
:1038E00051EC100B00F0E4FB53EC1C2B00F088FEB5
:1038F00053EC1B2B00F0DCFB9DED100B41EC1B0B84
:1039000053EC102B51EC100B00F07AFE41EC1D0B28
:103910009FED7FEB53EC1E2B00F0CAFB53EC1B2BEF
:1039200000F0C6FB0890CDE908519DED080B53EC63
:103930001E2B51EC100B01F06FF853EC1D2B01F016
:103940006BF853EC1B2B00F08FFF9DED080B41EC47
:103950001D0B53EC102B9DED100B51EC100B00F0D8
:103960004FFE41EC1B0B53EC1A2B51EC1D0B00F0DE
:1039700047FE9DED080B41EC1A0B53EC102B51EC5C
:103980001C0B00F03DFE53EC1A2B00F091FB41ECB8
:103990001A0B51EC1B0B53EC1A2B00F089FB0C900B
:1039A000CDE90C519DED0C0B53EC1B2B51EC100B86
:1039B00001F032F853EC1A2B00F056FF41EC1B0BD0
:1039C0009FED550B53EC102B9DED0C0B51EC100B98
:1039D00000F016FE41EC1A0B9FED510B51EC1B0B46
:1039E00053EC102B00F00CFE41EC1B0B9FED4E0B2B
:1039F00053EC102B9DED0C0B51EC100B00F000FE66
:103A000053EC1B2B00F054FB41EC100B484878445E
:103A100000EBC40090ED001B51EC100B53EC112B8C
:103A200000F046FB41EC1B0B384600F082FDCDE96F
:103A3000080153EC1B2B51EC1A0B00F039FB41EC45
:103A4000100B3C48784400EBC40090ED00CB51ECE7
:103A5000100B53EC1C2B00F02BFB9DED081B53ECC3
:103A6000112B00F025FB0690CDE906519DED080BCA
:103A700053EC102B9DED060B51EC100B00F0CCFF1E
:103A800053EC1C2B00F0C8FF53EC1A2B00F0C4FFC2
:103A900053EC1B2B00F0E8FE41EC100B9DED261BB8
:103AA00053EC102B8DED001B00959DED260B51EC7A
:103AB000100B00F0A5FD9DED000B41EC1A0B53EC33
:103AC000102B9DED260B51EC100B00F0A5FF9DED8A
:103AD000061B53EC112B2FE0000000604715F73F49
:103AE000FE822B654715F73F44DF5DF80BAE543E71
:103AF00000000000000040438E9803007AB60B00DF
:103B000032150000601500006A140000000000007B
:103B10000000000000000840000000E009C7EE3F80
:103B2000FD033ADC09C7EE3FF5015B14E02F3EBE12
:103B3000F6120000B012000000F062FD53EC1A2BE8
:103B400000F0B6FA9DED060B41EC1A0B53EC102B6E
:103B50009DED000B51EC100B00F052FDCDE90C0176
:103B60009DED0C0B51EC1A0B53EC102B00F0A0FA4E
:103B7000CDE902010C46AA498C422FDB611A0843A9
:103B800018D19DED0C0B53EC102B9DED020B51EC5D
:103B9000100B00F041FF41EC1B0B9FEDA30B51EC10
:103BA0001A0B53EC102B00F083FA53EC1B2B00F094
:103BB00025FE2DD20220FFF756FA00F009FA10EE8A
:103BC000901A18EE900A8DED020B8DED008B61F3CB
:103BD0001E0003909DED020BFFF7BEBB944A24F03C
:103BE0000041914214D39349214408437FF4EFAC40
:103BF0009DED0C0B53EC102B9DED020B51EC100BBB
:103C000000F00AFF53EC1A2B00F0F8FD7FF6DFAC52
:103C100024F000408849894A002601EB2051824265
:103C20002BDA481C4FF4801121FA00F02044844A1A
:103C3000C0F30A517A44A1F2FF3192ED000B814AA0
:103C40008DED080BCA4020EA0202C0F3130040F4D5
:103C50008010C1F1140120FA01F60992002CB8BFBE
:103C600076429DED080B53EC102B9DED0C0B51ECA7
:103C7000100B00F0D1FECDE90C019DED0C0B51ECC9
:103C80001A0B53EC102B00F013FA9FED6F0B0890FA
:103C9000CDE9085153EC102B9DED080B51EC100BA6
:103CA00000F0AEFC41EC1B0B9FED690B53EC102BAD
:103CB0009DED080B51EC100B00F0A2FC9DED0C0BE0
:103CC00041EC1C0B53EC102B9DED080B51EC100B31
:103CD00000F0A2FE53EC1A2B00F0C6FD9FED5E1B18
:103CE00053EC112B00F08CFC53EC1C2B00F0E0F992
:103CF00041EC1A0B51EC1B0B53EC1A2B00F0D8F9CA
:103D0000CDE902019DED020B53EC1B2B51EC100B86
:103D100000F082FE53EC1A2B00F0A6FD9DED020B85
:103D200041EC1A0B53EC102B51EC100B00F068FC1B
:103D3000CDE908014A489DED080B0521784400F0C3
:103D400097F89DED081B51EC100B53EC112B00F074
:103D500057FC9DED021B53EC112B00F085FDCDE9C6
:103D600006019DED020B53EC1A2B51EC100B00F0E9
:103D700047FC53EC1A2B00F09BF99FED3B0B41ECF9
:103D80001A0B53EC102B9DED060B51EC100B00F0B1
:103D900043FE9DED060B41EC1B0B53EC102B9DEDF0
:103DA000020B51EC100B00F02BFC53EC1B2B00F022
:103DB0003BFA53EC1A2B00F02FFE9DED021B53EC47
:103DC000112B00F029FE53EC192B00F04DFDCDE92D
:103DD000020101EB065001150029C8BF039015DC54
:103DE0009DED020B324651EC100B00F036FFFFF751
:103DF000FDF9042808BF00F0FBF832469DED020BE8
:103E000051EC100B00F029FFCDE902019DED020BF2
:103E100051EC180B53EC102B00F0F2FBFFF73ABB00
:103E20000000904000000000FE822B654715973C83
:103E300000CC904000346F3F01FCFFFF0000E03FEA
:103E400038110000FFFF0F0000000000432EE63F86
:103E5000396CA80C615C20BEEF39FAFE422EE63FB9
:103E600008100000000000000000000000000040FA
:103E700070B504462DED028B4D1E00EBC500B0EE73
:103E8000408AF0EE608A90ED000B35F0060017D006
:103E900053EC182B51EC100B00F0B2FB41EC100B63
:103EA0006D1E04EBC50090ED001B51EC100B53ECA4
:103EB000112B00F0FDF841EC100B35F00600E7D1B6
:103EC000022D36D0042D1CD0062D1CBFBDEC028B5C
:103ED00070BD53EC182B51EC100B00F091FB94EDDE
:103EE0000A1B53EC112B00F0E3F853EC182B00F0F5
:103EF00087FB94ED081B53EC112B00F0D9F841EC33
:103F0000100B53EC182B51EC100B00F079FB94EDD7
:103F1000061B53EC112B00F0CBF853EC182B00F0E0
:103F20006FFB94ED040B53EC102B00F0C1F841EC47
:103F3000100B53EC182B51EC100B00F061FB94EDBF
:103F4000021B53EC112B00F0B3F853EC182B00F0CC
:103F500057FB94ED001B53EC112B00F0A9F8BDECBE
:103F6000028B41EC100B70BD9FED070B10B553ECAD
:103F7000102B9FED070B51EC100B00F055F941ECA5
:103F8000100B10BD00000000000000000000000049
:103F9000000000000000F03F10B553EC112B51EC75
:103FA000100B00F085F841EC100B10BD0000000074
:103FB0009FED050B10B553EC102B51EC100B00F0DE
:103FC00033F941EC100B10BD0000000000000000B0
:103FD0009FED050B10B553EC102B51EC100B00F0BE
:103FE0000FFB41EC100B10BD000000000000007042
:103FF0009FED050B10B553EC102B51EC100B00F09E
:10400000FFFA41EC100B10BD000000000000001092
:1040100082B0CDE9000121F0004001909DED000B40
:1040200002B051EC100B704700B52DED048B83B03E
:1040300041EC190B00F024FC41EC180B18EE100AAF
:1040400018EE901A8DED008B002818BF0120084350
:1040500020F00040C0F17F6000F1E040C00F14D0BC
:1040600019EE101A19EE900A8DED009B002918BF69
:104070000121084320F00040C0F17F6000F1E040E2
:10408000C00F04BF0120FEF7EEFF51EC180B03B088
:10409000BDEC048B00BD81F00041704780F0004012
:1040A000704721F00041704720F000407047000049
:1040B00010B591EA030F48BF83F0004300F1B484C8
:1040C000841A71EB030C05D2121943EB0C03001B8D
:1040D00061EB0C01DFF824E14FEA1154A4EB135C0F
:1040E0001EEA430F18BF9EEA445F73D023EA0E0313
:1040F000DCF1200E21EA045143F4801332D322FA7A
:104100000CFE10EB0E0023FA0CFE41EB0E01CCF17D
:10411000200E03FA0EFE10EB0E0051F10001B1F576
:10412000801FCCF1200E32D201EB045112FA0EF2B4
:10413000BDE8104058BF7047401C38BF5FEA4202DC
:1041400018BF7047002814BF20F0010041F10001A2
:104150004FEA410313F5001F38BF7047A1F1C0417A
:1041600000F046BB012A43EB0302ACF1200CDCF16A
:104170001F0E32BF4FF0000E23FA0CF310EB0300BA
:1041800041EB0451B4EB115FD0D0A1EB045101F528
:10419000801149085FEA300001EB04510ED350F161
:1041A000000038BF12FA0EFE08D1BDE81040C9E782
:1041B000401C38BF5FEA4202CAD1C3E7BDE81040E5
:1041C0004FEA410313F5001F38BF7047A1F1C0410A
:1041D00000F00EBB9EEA445F08D011EA5E0FBDE816
:1041E000104004BF01F0004100207047BDE81040BE
:1041F00070B500F0AFFA00BF64FBBE3E0000E0FF08
:1042000002494FF0000000F0F6BC00BF0000F87F4C
:10421000491058BFC1F140415B1058BFC3F1404342
:104220008B42EFF3008070472DE9C04130B4DFF8D6
:10423000A0C23CEA111418BF3CEA131400F0EC8051
:1042400081EA03051CEA111444EAD57418BF1CEA7C
:10425000131500F0C780A4EB05044FF0004545EAB4
:10426000C12145EAC32341EA505143EA525304F1C4
:104270007F74994204F500344FEAC0204FEAC2220D
:1042800008BF904200F09C804FEA13650FF2401681
:10429000765D4FEA134506FB05F7C7F1807706FB0D
:1042A00007F74FEAD737A7FB03687642C8F580388F
:1042B000A7FB06CE38BFA8F1010807FB08E64FF0C0
:1042C000000EA6FB028CE6FB03CEDCF1000CCEF167
:1042D000004E38BFAEF1010EA6FB0C584FF00007A0
:1042E0004FF00005E6FB0E87A1FB08C6A0FB07CE3A
:1042F00016EB0E0645F10005E1FB076515F1E04EF2
:104300007EBFA4F580345FEA46066D4116F1800752
:1043100045F100054FEA17274FEA066647EA0567A9
:10432000A6F1DE46B6F1805F4FEA15251FD9384663
:1043300024F0010C05EBC471BCF1FE6F01EB0C1114
:1043400002D8F0BCBDE8008124425CBF01F5801EAC
:104350009EEAC47F02D4F0BCBDE80081244238D478
:10436000F0BCA1F1C041BDE8004100F041BA4FEA04
:10437000D22242EA43524FEAD323A7FB02864FEAF6
:10438000D02040EA415007FB03661EEA0E0F4FEAB9
:10439000D12105FB026658BFA6EB0056B6EB0056CE
:1043A0004FEA520E4EEAC37E18EB0E0E56EB530E3A
:1043B000BDD518EB02085E417F1C55F10005B6E73C
:1043C0004FF480154FF000074FF000064FF0000843
:1043D000ADE7F0BC4FF0000001F1C04101F0004139
:1043E000BDE8008111EA0C1F0CEA131500D00CE0A7
:1043F00013EA0C1F00F025804FF00000F0BC81EAAA
:10440000030101F00041BDE80081F0BCBDE80041BE
:1044100081EA030100F0ECB9F0BCBDE8004170B5E1
:1044200000F098F9097EFC3E00F007B881EA03012C
:104430004FF0000001F00041704781EA030100F0F5
:10444000D7B9F0BCBDE800414FF0000021497047EA
:10445000FFFDFBF9F7F5F4F2F0EEEDEBE9E8E6E449
:10446000E3E1E0DEDDDBDAD8D7D5D4D3D1D0CFCDD0
:10447000CCCBCAC8C7C6C5C4C2C1C0BFBEBDBCBB09
:10448000BAB9B8B7B6B5B4B3B2B1B0AFAEADACAB04
:10449000AAA9A8A8A7A6A5A4A3A3A2A1A09F9F9EDE
:1044A0009D9C9C9B9A999998979796959594939390
:1044B000929191908F8F8E8E8D8C8C8B8B8A898927
:1044C00088888787868585848483838282818180AA
:1044D0000000FF070000F87F4FEA1153A3F5806347
:1044E000D3F11E03A8BFD3F1200C08DB4FF000422C
:1044F00042EAC12252EA505232FA03F070470942AE
:104500000BD4102BC4BF0020704703F5787CBCF19E
:10451000FF3F05D04FF0FF3070474FF0000070476D
:1045200070B500F017F900BF499224800020704751
:10453000F0E710F0004248BF4042B0FA80F310FAB2
:1045400003F10AD0C3F11D0303F580634FEA415024
:1045500002EB035202EBD12170474FF0000070478D
:10456000B0FA80F310FA03F10AD0C3F11D0303F58A
:1045700080634FEA41504FEA035202EBD12170476A
:104580004FF000007047000051EA030C17D41CF5EF
:10459000801F58BFBCF5801F00F10680994218BFEC
:1045A000704708BF9042704707D711F5801F58BF6A
:1045B00013F5801F19D499427047894270471CF542
:1045C000801F08D5BCF5801FF7D58B4218BF7047F8
:1045D00008BF824270474FF4001C1CEB410F38BFEC
:1045E0001CEB430F01D28B42704770B500F0B2F85C
:1045F000922449004FF000514FF08053FFF708BE5E
:10460000DFF848C170B51CEA111E1EBF1CEA131565
:104610009EEA0C0F95EA0C0F00F06F8081EA03040C
:1046200023EA4C134EEAD47E21EA4C1141F4801166
:1046300043F48013AE44A1FB024CA0FB0365AEF132
:104640007F7E361955EB0C05A1FB034C4CF10003A2
:10465000A0FB021C16EB0C06654153F10003094256
:1046600018BF46F0010613F4007F0BD14FEA033167
:104670004FEA0530340341EA155140EA16506FF015
:1046800003020AE04FEAC3214FEAC520F40241EADF
:10469000555140EA56506FF0020202EB2E4201EBF8
:1046A000025585EACE710AD05FEA440C18BF24F0A7
:1046B000004450F1000041F1000120EAD47040F2C2
:1046C000FE7C624500D270BDA84214BF4FF080440A
:1046D0004FF04044002E08BF0024BEF1806FA8BFF9
:1046E000A1F1C041BDE8704080F282804FF000002F
:1046F00001F1C04101F0004170479EEA0C0F0CEA45
:10470000131518BF95EA0C0F06D04FF0000081EA90
:10471000030E0EF0004170BD00F01CF88900013E50
:1047200000F007B800F009B84FEA430C5FEA5C5CA0
:1047300008D081EA030100F05BB84FEA410C5FEA60
:104740005C5CF6D14FF00000014970470000FF07A4
:104750000000F87F0EF1020E2EF0030E5EF8046BDF
:10476000364205D4012A43EB030515F5001F12D884
:10477000012841EB010C1CF5001F0CD80ED14FEAAB
:10478000D17C15F5001F0CEB4C0C0CF1020C08BF92
:104790004CEBD37C04E04FF0080C01E04FEAD37CF3
:1047A0000CEB4C0526FA05F606F00706B6F1040CEC
:1047B00006D20EEB860CBDE870404CF0010C604751
:1047C000DFE80CF0090B02024FF000414FF000004F
:1047D000A1F5002170BD19461046012851EB0104D6
:1047E00018BFD4F5001484BF002001F0004170BD53
:1047F0000808A0F500114FEA3101704753EA010C97
:1048000017D41CF5801F58BFBCF5801F00F106802F
:104810008B4218BF704708BF8242704707D713F515
:10482000801F58BF11F5801F19D48B4270479B42DF
:1048300070471CF5801F08D5BCF5801FF7D599423D
:1048400018BF704708BF904270474FF4001C1CEB24
:10485000430F38BF1CEB410F01D2994270470FB490
:104860000CBC03BCFFF7C1BE91EA030F10B581F089
:1048700000413FF525AC83F0004300F0D5B80000BF
:104880002DE9F04101F5801CBCF5001FC0F2A980A4
:104890004FEA115C21EA0C510CF1FD0C41F480113E
:1048A0005FEA5C0C0CF5C07C01D34000494130A4A8
:1048B000890241EA905187028E0E0A0CA45D04FB26
:1048C00004F602FB06F6C6F14046A4FB0662F60DAE
:1048D00046EA422606FB06F4A4FB01235242C3F13A
:1048E000404338BF5B1EA6FB02420024E6FB0324C4
:1048F000D20B42EA4446A6FB0623A1FB02E2A3FB3D
:1049000007E4E3FB61426442C2F1404E38BFAEF1BE
:10491000010EA6FB04234FF00002E6FB0E32A2FBC1
:1049200003463400E2FB6264A1FB06E6A4FB07E851
:10493000E4FB61687642C8F1405838BFA8F101082D
:10494000A2FB06E4A3FB08E5E2FB6854A1FB05E635
:10495000A7FB04E8E1FB648618F1200556F1000688
:10496000A809A8F11B08B10908F03F08B8F10A0F1F
:1049700040EA86601CD901EB0C51BDE8F08100BF14
:10498000FCF5EEE8E2DDD8D3CFCBC7C3C0BDB9B6E6
:10499000B4B1AEACA9A7A5A3A19F9D9B9A989695EB
:1049A0009392908F8D8C8B89888786858483828172
:1049B000A0FB006800FB01F208EB4208B8EB872877
:1049C00007D5341858EB0104D5D5401C51F100012E
:1049D000D1E7341A78EB0104CDD4401E71F1000107
:1049E000C9E75FEA4C0C5FEA9C5C0DD105D34FF040
:1049F000000001F00041BDE8F081BDE8F04170B574
:104A0000FFF7A8FE6DDBFFBEBDE8F0414FF00000F0
:104A1000004970470000F87F10B591EA030F48BFC6
:104A200083F000433FF54CAB841A71EB030C07D2C3
:104A300012198CF0004C43EB0C03001B61EB0C01D2
:104A4000DFF8A4E14FEA1154A4EB135C1EEA430F14
:104A500018BF9EEA445F00F0B08023EA6E03524222
:104A600021EA0451C3EB6E0338BF5B1EDCF1200E5C
:104A700025D322FA0CFE10EB0E0043FA0CFE41EB9C
:104A80000E01CCF1200E03FA0EFE10EB0E0051F1D8
:104A90000001CCF1200E29D412FA0EF201EB0451E0
:104AA000BDE8104058BF7047401C1CBFB2F1004F1A
:104AB000704700280CBF491C20F00100704712EB22
:104AC000020E43EB030218BF4FF0010E4EEA420202
:104AD000ACF1200CDCF11E0E54D943FA0CFE10EBA5
:104AE0000E0051F1FF31CCF11E0ED5D50EF1010EA5
:104AF00012FA0EFE404141EB010101EB445C5FEA1A
:104B00005C5C10D910EBDE7001EB045138BFBEF1D4
:104B1000004FBDE8104018BF704700280CBF491C6B
:104B200020F00100704730D24FEAD42C11F500116B
:104B300024F400641BD0B1FA81F20B3AA41AA41E2B
:104B4000D2F12003914030FA03F31943904001EB76
:104B5000CC71002C01EB0451BDE81040A8BF704798
:104B600001F1C0414FF0000001F000417047B0FA80
:104B700080F310FA03F100D110BDE41A173C480588
:104B8000C90AE4E701EB045110BD491001EB0451DF
:104B9000BDE810404FEA300002E04FF000017047DE
:104BA0004A0008BF0042F8D0B2F5001F28BF704786
:104BB00001F000414FF0000070479EEA445F07D0CB
:104BC00011EA5E0FBDE8104004BF002100207047CD
:104BD000BDE8104070B5FFF7BDFD00BF40DFF63EF9
:104BE00083F00041104670470000E0FF4FF0407036
:104BF000E1EE100A70470CF00F03092B08BF0820E4
:104C000000F059800A2B0BD0082B18BF704708BF43
:104C10001CF0400F0AD04FF000004FF00001704729
:104C20001CF0400F18BF4FF0004070471CF0100FF1
:104C300008D020F0704300F07F4242EAD3014FEAEF
:104C40004370704700F0604021F07F4242EA00026A
:104C500001F07F4040EA727070474FF0FF0C4CF457
:104C6000E06C1CEA11531CBF9CEA030C9445C2BFC4
:104C7000DA4201EB02517047002B0DD0BCF1000F5E
:104C80000FD0002A01F00041A4BF41F0E04141F003
:104C90007F614FF00000704701F000414FF00000CD
:104CA000704750EA01334FF09B0C18BF4CF0806CFA
:104CB0007FF4A6AA70471CF4801F11D01CF4E02FCB
:104CC00003D06FEACC31490070474FF04050EFF30A
:104CD000008222F0704242EA000282F300887047AC
:104CE0004FF0000070470000000000000000F03F9F
:104CF000000000000000F83F00000000000000007D
:104D00000000004003B8E23F000000000000000087
:104D100006D0CF43EBFD4C3E033333333333E33F15
:104D2000FFAB6FDBB66DDB3F4D268F515555D53F41
:104D300001411DA96074D13F65DBC9934A86CD3F0F
:104D4000EF4E454A287ECA3F3E5555555555C53FFD
:104D500093BDBE166CC166BF2CDE25AF6A56113FEF
:104D6000F16BD2C541BDBBBED0A4BE726937663EF1
:104D70000000000000000000984D00080000002026
:104D80007C000000C4010008144E00087C000020D4
:104D90002C070000E001000846460000000000006B
:104DA0000000000000000000007A030A000000007C
:104DB00000000000010203040607080900000000CB
:104DC00000000000000000000000000000000000E3
:104DD00000000000000000000000000000000000D3
:104DE00000000000000000000000000000000000C3
:104DF00000000000000000000000000000000000B3
:104E0000000000000000000001020304010203048E
:044E10000607080980
:040000050800018965
:00000001FF
